{
  "contractName": "DrugTracking",
  "abi": [
    {
      "inputs": [],
      "stateMutability": "nonpayable",
      "type": "constructor"
    },
    {
      "inputs": [
        {
          "internalType": "address",
          "name": "owner",
          "type": "address"
        }
      ],
      "name": "OwnableInvalidOwner",
      "type": "error"
    },
    {
      "inputs": [
        {
          "internalType": "address",
          "name": "account",
          "type": "address"
        }
      ],
      "name": "OwnableUnauthorizedAccount",
      "type": "error"
    },
    {
      "anonymous": false,
      "inputs": [
        {
          "indexed": false,
          "internalType": "string",
          "name": "id",
          "type": "string"
        },
        {
          "indexed": false,
          "internalType": "uint256",
          "name": "timestamp",
          "type": "uint256"
        },
        {
          "indexed": false,
          "internalType": "string",
          "name": "details",
          "type": "string"
        }
      ],
      "name": "ColdChainViolation",
      "type": "event"
    },
    {
      "anonymous": false,
      "inputs": [
        {
          "indexed": false,
          "internalType": "string",
          "name": "id",
          "type": "string"
        },
        {
          "indexed": false,
          "internalType": "string",
          "name": "productId",
          "type": "string"
        },
        {
          "indexed": false,
          "internalType": "string",
          "name": "batchId",
          "type": "string"
        },
        {
          "indexed": false,
          "internalType": "address",
          "name": "manufacturer",
          "type": "address"
        }
      ],
      "name": "DrugManufactured",
      "type": "event"
    },
    {
      "anonymous": false,
      "inputs": [
        {
          "indexed": false,
          "internalType": "string",
          "name": "id",
          "type": "string"
        },
        {
          "indexed": false,
          "internalType": "address",
          "name": "from",
          "type": "address"
        },
        {
          "indexed": false,
          "internalType": "address",
          "name": "to",
          "type": "address"
        },
        {
          "indexed": false,
          "internalType": "string",
          "name": "newStatus",
          "type": "string"
        }
      ],
      "name": "DrugTransferred",
      "type": "event"
    },
    {
      "anonymous": false,
      "inputs": [
        {
          "indexed": true,
          "internalType": "address",
          "name": "previousOwner",
          "type": "address"
        },
        {
          "indexed": true,
          "internalType": "address",
          "name": "newOwner",
          "type": "address"
        }
      ],
      "name": "OwnershipTransferred",
      "type": "event"
    },
    {
      "inputs": [
        {
          "internalType": "string",
          "name": "",
          "type": "string"
        }
      ],
      "name": "drugs",
      "outputs": [
        {
          "internalType": "string",
          "name": "id",
          "type": "string"
        },
        {
          "internalType": "string",
          "name": "productId",
          "type": "string"
        },
        {
          "internalType": "string",
          "name": "batchId",
          "type": "string"
        },
        {
          "internalType": "address",
          "name": "manufacturer",
          "type": "address"
        },
        {
          "internalType": "address",
          "name": "currentOwner",
          "type": "address"
        },
        {
          "internalType": "string",
          "name": "status",
          "type": "string"
        },
        {
          "internalType": "uint256",
          "name": "lastUpdateTimestamp",
          "type": "uint256"
        }
      ],
      "stateMutability": "view",
      "type": "function",
      "constant": true
    },
    {
      "inputs": [],
      "name": "owner",
      "outputs": [
        {
          "internalType": "address",
          "name": "",
          "type": "address"
        }
      ],
      "stateMutability": "view",
      "type": "function",
      "constant": true
    },
    {
      "inputs": [],
      "name": "renounceOwnership",
      "outputs": [],
      "stateMutability": "nonpayable",
      "type": "function"
    },
    {
      "inputs": [
        {
          "internalType": "address",
          "name": "newOwner",
          "type": "address"
        }
      ],
      "name": "transferOwnership",
      "outputs": [],
      "stateMutability": "nonpayable",
      "type": "function"
    },
    {
      "inputs": [
        {
          "internalType": "string",
          "name": "_id",
          "type": "string"
        },
        {
          "internalType": "string",
          "name": "_productId",
          "type": "string"
        },
        {
          "internalType": "string",
          "name": "_batchId",
          "type": "string"
        }
      ],
      "name": "manufactureDrug",
      "outputs": [],
      "stateMutability": "nonpayable",
      "type": "function"
    },
    {
      "inputs": [
        {
          "internalType": "string",
          "name": "_id",
          "type": "string"
        },
        {
          "internalType": "address",
          "name": "_newOwner",
          "type": "address"
        },
        {
          "internalType": "string",
          "name": "_newStatus",
          "type": "string"
        }
      ],
      "name": "transferDrug",
      "outputs": [],
      "stateMutability": "nonpayable",
      "type": "function"
    },
    {
      "inputs": [
        {
          "internalType": "string",
          "name": "_id",
          "type": "string"
        },
        {
          "internalType": "string",
          "name": "_details",
          "type": "string"
        }
      ],
      "name": "logColdChainViolation",
      "outputs": [],
      "stateMutability": "nonpayable",
      "type": "function"
    },
    {
      "inputs": [
        {
          "internalType": "string",
          "name": "_id",
          "type": "string"
        }
      ],
      "name": "verifyDrug",
      "outputs": [
        {
          "internalType": "string",
          "name": "productId",
          "type": "string"
        },
        {
          "internalType": "string",
          "name": "batchId",
          "type": "string"
        },
        {
          "internalType": "address",
          "name": "manufacturer",
          "type": "address"
        },
        {
          "internalType": "address",
          "name": "currentOwner",
          "type": "address"
        },
        {
          "internalType": "string",
          "name": "status",
          "type": "string"
        },
        {
          "internalType": "string[]",
          "name": "history",
          "type": "string[]"
        }
      ],
      "stateMutability": "view",
      "type": "function",
      "constant": true
    }
  ],
  "bytecode": "0x608060405234801561000f575f80fd5b50335f73ffffffffffffffffffffffffffffffffffffffff168173ffffffffffffffffffffffffffffffffffffffff1603610081575f6040517f1e4fbdf70000000000000000000000000000000000000000000000000000000081526004016100789190610196565b60405180910390fd5b6100908161009660201b60201c565b506101af565b5f805f9054906101000a900473ffffffffffffffffffffffffffffffffffffffff169050815f806101000a81548173ffffffffffffffffffffffffffffffffffffffff021916908373ffffffffffffffffffffffffffffffffffffffff1602179055508173ffffffffffffffffffffffffffffffffffffffff168173ffffffffffffffffffffffffffffffffffffffff167f8be0079c531659141344cd1fd0a4f28419497f9722a3daafe3b4186f6b6457e060405160405180910390a35050565b5f73ffffffffffffffffffffffffffffffffffffffff82169050919050565b5f61018082610157565b9050919050565b61019081610176565b82525050565b5f6020820190506101a95f830184610187565b92915050565b61297e806101bc5f395ff3fe608060405234801561000f575f80fd5b5060043610610086575f3560e01c80638da5cb5b116100595780638da5cb5b14610101578063b009493d1461011f578063d5ccb94014610155578063f2fde38b1461017157610086565b80633b7b0a741461008a5780635a05973d146100bf578063715018a6146100db578063722b743d146100e5575b5f80fd5b6100a4600480360381019061009f91906118e6565b61018d565b6040516100b696959493929190611acf565b60405180910390f35b6100d960048036038101906100d49190611b4a565b61058a565b005b6100e36108d6565b005b6100ff60048036038101906100fa9190611bee565b6108e9565b005b610109610a22565b6040516101169190611c64565b60405180910390f35b610139600480360381019061013491906118e6565b610a49565b60405161014c9796959493929190611c95565b60405180910390f35b61016f600480360381019061016a9190611d48565b610cf5565b005b61018b60048036038101906101869190611dd0565b6110b8565b005b6060805f806060805f6001886040516101a69190611e35565b90815260200160405180910390205f0180546101c190611e78565b905011610203576040517f08c379a00000000000000000000000000000000000000000000000000000000081526004016101fa90611ef2565b60405180910390fd5b6001876040516102139190611e35565b90815260200160405180910390206001016001886040516102349190611e35565b90815260200160405180910390206002016001896040516102559190611e35565b90815260200160405180910390206003015f9054906101000a900473ffffffffffffffffffffffffffffffffffffffff1660018a6040516102969190611e35565b90815260200160405180910390206004015f9054906101000a900473ffffffffffffffffffffffffffffffffffffffff1660018b6040516102d79190611e35565b908152602001604051809103902060050160018c6040516102f89190611e35565b908152602001604051809103902060070185805461031590611e78565b80601f016020809104026020016040519081016040528092919081815260200182805461034190611e78565b801561038c5780601f106103635761010080835404028352916020019161038c565b820191905f5260205f20905b81548152906001019060200180831161036f57829003601f168201915b5050505050955084805461039f90611e78565b80601f01602080910402602001604051908101604052809291908181526020018280546103cb90611e78565b80156104165780601f106103ed57610100808354040283529160200191610416565b820191905f5260205f20905b8154815290600101906020018083116103f957829003601f168201915b5050505050945081805461042990611e78565b80601f016020809104026020016040519081016040528092919081815260200182805461045590611e78565b80156104a05780601f10610477576101008083540402835291602001916104a0565b820191905f5260205f20905b81548152906001019060200180831161048357829003601f168201915b5050505050915080805480602002602001604051908101604052809291908181526020015f905b8282101561056f578382905f5260205f200180546104e490611e78565b80601f016020809104026020016040519081016040528092919081815260200182805461051090611e78565b801561055b5780601f106105325761010080835404028352916020019161055b565b820191905f5260205f20905b81548152906001019060200180831161053e57829003601f168201915b5050505050815260200190600101906104c7565b50505050905095509550955095509550955091939550919395565b61059261113c565b5f6001846040516105a39190611e35565b90815260200160405180910390205f0180546105be90611e78565b905014610600576040517f08c379a00000000000000000000000000000000000000000000000000000000081526004016105f790611f80565b60405180910390fd5b6040518061010001604052808481526020018381526020018281526020013373ffffffffffffffffffffffffffffffffffffffff1681526020013373ffffffffffffffffffffffffffffffffffffffff1681526020016040518060400160405280600c81526020017f4d414e554641435455524544000000000000000000000000000000000000000081525081526020014281526020015f67ffffffffffffffff8111156106b1576106b06117c2565b5b6040519080825280602002602001820160405280156106e457816020015b60608152602001906001900390816106cf5790505b508152506001846040516106f89190611e35565b90815260200160405180910390205f820151815f019081610719919061213b565b50602082015181600101908161072f919061213b565b506040820151816002019081610745919061213b565b506060820151816003015f6101000a81548173ffffffffffffffffffffffffffffffffffffffff021916908373ffffffffffffffffffffffffffffffffffffffff1602179055506080820151816004015f6101000a81548173ffffffffffffffffffffffffffffffffffffffff021916908373ffffffffffffffffffffffffffffffffffffffff16021790555060a08201518160050190816107e7919061213b565b5060c0820151816006015560e082015181600701908051906020019061080e9291906116c7565b509050506001836040516108229190611e35565b908152602001604051809103902060070161083c336111c3565b610845426114a6565b60405160200161085692919061229e565b604051602081830303815290604052908060018154018082558091505060019003905f5260205f20015f909190919091509081610893919061213b565b507f9895ccb07b2d9d1127dc80aedcc8f102de79a9af92d354c80e99750cf3b75372838383336040516108c994939291906122d7565b60405180910390a1505050565b6108de61113c565b6108e75f6115ff565b565b6108f161113c565b5f6001836040516109029190611e35565b90815260200160405180910390205f01805461091d90611e78565b90501161095f576040517f08c379a000000000000000000000000000000000000000000000000000000000815260040161095690611ef2565b60405180910390fd5b60018260405161096f9190611e35565b90815260200160405180910390206007018161098a336111c3565b610993426114a6565b6040516020016109a5939291906123c3565b604051602081830303815290604052908060018154018082558091505060019003905f5260205f20015f9091909190915090816109e2919061213b565b507fa4b5f4d6d86454a9f5a5bfc80cd041bed01c182b643da02c6c0cd6cc12e82399824283604051610a1693929190612414565b60405180910390a15050565b5f805f9054906101000a900473ffffffffffffffffffffffffffffffffffffffff16905090565b6001818051602081018201805184825260208301602085012081835280955050505050505f91509050805f018054610a8090611e78565b80601f0160208091040260200160405190810160405280929190818152602001828054610aac90611e78565b8015610af75780601f10610ace57610100808354040283529160200191610af7565b820191905f5260205f20905b815481529060010190602001808311610ada57829003601f168201915b505050505090806001018054610b0c90611e78565b80601f0160208091040260200160405190810160405280929190818152602001828054610b3890611e78565b8015610b835780601f10610b5a57610100808354040283529160200191610b83565b820191905f5260205f20905b815481529060010190602001808311610b6657829003601f168201915b505050505090806002018054610b9890611e78565b80601f0160208091040260200160405190810160405280929190818152602001828054610bc490611e78565b8015610c0f5780601f10610be657610100808354040283529160200191610c0f565b820191905f5260205f20905b815481529060010190602001808311610bf257829003601f168201915b505050505090806003015f9054906101000a900473ffffffffffffffffffffffffffffffffffffffff1690806004015f9054906101000a900473ffffffffffffffffffffffffffffffffffffffff1690806005018054610c6e90611e78565b80601f0160208091040260200160405190810160405280929190818152602001828054610c9a90611e78565b8015610ce55780601f10610cbc57610100808354040283529160200191610ce5565b820191905f5260205f20905b815481529060010190602001808311610cc857829003601f168201915b5050505050908060060154905087565b825f600182604051610d079190611e35565b90815260200160405180910390205f018054610d2290611e78565b905011610d64576040517f08c379a0000000000000000000000000000000000000000000000000000000008152600401610d5b906124a1565b60405180910390fd5b600181604051610d749190611e35565b90815260200160405180910390206004015f9054906101000a900473ffffffffffffffffffffffffffffffffffffffff1673ffffffffffffffffffffffffffffffffffffffff163373ffffffffffffffffffffffffffffffffffffffff1614610e12576040517f08c379a0000000000000000000000000000000000000000000000000000000008152600401610e099061252f565b60405180910390fd5b5f600185604051610e239190611e35565b90815260200160405180910390205f018054610e3e90611e78565b905011610e80576040517f08c379a0000000000000000000000000000000000000000000000000000000008152600401610e7790611ef2565b60405180910390fd5b5f73ffffffffffffffffffffffffffffffffffffffff168373ffffffffffffffffffffffffffffffffffffffff1603610eee576040517f08c379a0000000000000000000000000000000000000000000000000000000008152600401610ee5906125bd565b60405180910390fd5b5f600185604051610eff9190611e35565b90815260200160405180910390206004015f9054906101000a900473ffffffffffffffffffffffffffffffffffffffff16905083600186604051610f439190611e35565b90815260200160405180910390206004015f6101000a81548173ffffffffffffffffffffffffffffffffffffffff021916908373ffffffffffffffffffffffffffffffffffffffff16021790555082600186604051610fa29190611e35565b90815260200160405180910390206005019081610fbf919061213b565b5042600186604051610fd19190611e35565b908152602001604051809103902060060181905550600185604051610ff69190611e35565b9081526020016040518091039020600701611010826111c3565b611019866111c3565b85611023426114a6565b60405160200161103694939291906126b9565b604051602081830303815290604052908060018154018082558091505060019003905f5260205f20015f909190919091509081611073919061213b565b507f772cf988c6c8639e7b31e1e4a5786c5eb66313b250ccfb5e941e68626a64b30e858286866040516110a99493929190612722565b60405180910390a15050505050565b6110c061113c565b5f73ffffffffffffffffffffffffffffffffffffffff168173ffffffffffffffffffffffffffffffffffffffff1603611130575f6040517f1e4fbdf70000000000000000000000000000000000000000000000000000000081526004016111279190611c64565b60405180910390fd5b611139816115ff565b50565b6111446116c0565b73ffffffffffffffffffffffffffffffffffffffff16611162610a22565b73ffffffffffffffffffffffffffffffffffffffff16146111c1576111856116c0565b6040517f118cdaa70000000000000000000000000000000000000000000000000000000081526004016111b89190611c64565b60405180910390fd5b565b60605f8273ffffffffffffffffffffffffffffffffffffffff165f1b90505f6040518060400160405280601081526020017f303132333435363738396162636465660000000000000000000000000000000081525090505f602a67ffffffffffffffff811115611236576112356117c2565b5b6040519080825280601f01601f1916602001820160405280156112685781602001600182028036833780820191505090505b5090507f3000000000000000000000000000000000000000000000000000000000000000815f8151811061129f5761129e612773565b5b60200101907effffffffffffffffffffffffffffffffffffffffffffffffffffffffffffff191690815f1a9053507f78000000000000000000000000000000000000000000000000000000000000008160018151811061130257611301612773565b5b60200101907effffffffffffffffffffffffffffffffffffffffffffffffffffffffffffff191690815f1a9053505f5b601481101561149a5782600485836020811061135157611350612773565b5b1a60f81b7effffffffffffffffffffffffffffffffffffffffffffffffffffffffffffff1916901c60f81c60ff16815181106113905761138f612773565b5b602001015160f81c60f81b826002836113a991906127cd565b60026113b5919061280e565b815181106113c6576113c5612773565b5b60200101907effffffffffffffffffffffffffffffffffffffffffffffffffffffffffffff191690815f1a90535082600f60f81b85836020811061140d5761140c612773565b5b1a60f81b1660f81c60ff168151811061142957611428612773565b5b602001015160f81c60f81b8260028361144291906127cd565b600361144e919061280e565b8151811061145f5761145e612773565b5b60200101907effffffffffffffffffffffffffffffffffffffffffffffffffffffffffffff191690815f1a9053508080600101915050611332565b50809350505050919050565b60605f82036114ec576040518060400160405280600181526020017f300000000000000000000000000000000000000000000000000000000000000081525090506115fa565b5f8290505f5b5f821461151b57808061150490612841565b915050600a8261151491906128b5565b91506114f2565b5f8167ffffffffffffffff811115611536576115356117c2565b5b6040519080825280601f01601f1916602001820160405280156115685781602001600182028036833780820191505090505b5090505b5f85146115f35760018261158091906128e5565b9150600a8561158f9190612918565b603061159b919061280e565b60f81b8183815181106115b1576115b0612773565b5b60200101907effffffffffffffffffffffffffffffffffffffffffffffffffffffffffffff191690815f1a905350600a856115ec91906128b5565b945061156c565b8093505050505b919050565b5f805f9054906101000a900473ffffffffffffffffffffffffffffffffffffffff169050815f806101000a81548173ffffffffffffffffffffffffffffffffffffffff021916908373ffffffffffffffffffffffffffffffffffffffff1602179055508173ffffffffffffffffffffffffffffffffffffffff168173ffffffffffffffffffffffffffffffffffffffff167f8be0079c531659141344cd1fd0a4f28419497f9722a3daafe3b4186f6b6457e060405160405180910390a35050565b5f33905090565b828054828255905f5260205f2090810192821561170d579160200282015b8281111561170c5782518290816116fc919061213b565b50916020019190600101906116e5565b5b50905061171a919061171e565b5090565b5b8082111561173d575f81816117349190611741565b5060010161171f565b5090565b50805461174d90611e78565b5f825580601f1061175e575061177b565b601f0160209004905f5260205f209081019061177a919061177e565b5b50565b5b80821115611795575f815f90555060010161177f565b5090565b5f604051905090565b5f80fd5b5f80fd5b5f80fd5b5f80fd5b5f601f19601f8301169050919050565b7f4e487b71000000000000000000000000000000000000000000000000000000005f52604160045260245ffd5b6117f8826117b2565b810181811067ffffffffffffffff82111715611817576118166117c2565b5b80604052505050565b5f611829611799565b905061183582826117ef565b919050565b5f67ffffffffffffffff821115611854576118536117c2565b5b61185d826117b2565b9050602081019050919050565b828183375f83830152505050565b5f61188a6118858461183a565b611820565b9050828152602081018484840111156118a6576118a56117ae565b5b6118b184828561186a565b509392505050565b5f82601f8301126118cd576118cc6117aa565b5b81356118dd848260208601611878565b91505092915050565b5f602082840312156118fb576118fa6117a2565b5b5f82013567ffffffffffffffff811115611918576119176117a6565b5b611924848285016118b9565b91505092915050565b5f81519050919050565b5f82825260208201905092915050565b8281835e5f83830152505050565b5f61195f8261192d565b6119698185611937565b9350611979818560208601611947565b611982816117b2565b840191505092915050565b5f73ffffffffffffffffffffffffffffffffffffffff82169050919050565b5f6119b68261198d565b9050919050565b6119c6816119ac565b82525050565b5f81519050919050565b5f82825260208201905092915050565b5f819050602082019050919050565b5f82825260208201905092915050565b5f611a0f8261192d565b611a1981856119f5565b9350611a29818560208601611947565b611a32816117b2565b840191505092915050565b5f611a488383611a05565b905092915050565b5f602082019050919050565b5f611a66826119cc565b611a7081856119d6565b935083602082028501611a82856119e6565b805f5b85811015611abd5784840389528151611a9e8582611a3d565b9450611aa983611a50565b925060208a01995050600181019050611a85565b50829750879550505050505092915050565b5f60c0820190508181035f830152611ae78189611955565b90508181036020830152611afb8188611955565b9050611b0a60408301876119bd565b611b1760608301866119bd565b8181036080830152611b298185611955565b905081810360a0830152611b3d8184611a5c565b9050979650505050505050565b5f805f60608486031215611b6157611b606117a2565b5b5f84013567ffffffffffffffff811115611b7e57611b7d6117a6565b5b611b8a868287016118b9565b935050602084013567ffffffffffffffff811115611bab57611baa6117a6565b5b611bb7868287016118b9565b925050604084013567ffffffffffffffff811115611bd857611bd76117a6565b5b611be4868287016118b9565b9150509250925092565b5f8060408385031215611c0457611c036117a2565b5b5f83013567ffffffffffffffff811115611c2157611c206117a6565b5b611c2d858286016118b9565b925050602083013567ffffffffffffffff811115611c4e57611c4d6117a6565b5b611c5a858286016118b9565b9150509250929050565b5f602082019050611c775f8301846119bd565b92915050565b5f819050919050565b611c8f81611c7d565b82525050565b5f60e0820190508181035f830152611cad818a611955565b90508181036020830152611cc18189611955565b90508181036040830152611cd58188611955565b9050611ce460608301876119bd565b611cf160808301866119bd565b81810360a0830152611d038185611955565b9050611d1260c0830184611c86565b98975050505050505050565b611d27816119ac565b8114611d31575f80fd5b50565b5f81359050611d4281611d1e565b92915050565b5f805f60608486031215611d5f57611d5e6117a2565b5b5f84013567ffffffffffffffff811115611d7c57611d7b6117a6565b5b611d88868287016118b9565b9350506020611d9986828701611d34565b925050604084013567ffffffffffffffff811115611dba57611db96117a6565b5b611dc6868287016118b9565b9150509250925092565b5f60208284031215611de557611de46117a2565b5b5f611df284828501611d34565b91505092915050565b5f81905092915050565b5f611e0f8261192d565b611e198185611dfb565b9350611e29818560208601611947565b80840191505092915050565b5f611e408284611e05565b915081905092915050565b7f4e487b71000000000000000000000000000000000000000000000000000000005f52602260045260245ffd5b5f6002820490506001821680611e8f57607f821691505b602082108103611ea257611ea1611e4b565b5b50919050565b7f44727567206e6f7420666f756e642e00000000000000000000000000000000005f82015250565b5f611edc600f83611937565b9150611ee782611ea8565b602082019050919050565b5f6020820190508181035f830152611f0981611ed0565b9050919050565b7f447275672077697468207468697320494420616c7265616479206578697374735f8201527f2e00000000000000000000000000000000000000000000000000000000000000602082015250565b5f611f6a602183611937565b9150611f7582611f10565b604082019050919050565b5f6020820190508181035f830152611f9781611f5e565b9050919050565b5f819050815f5260205f209050919050565b5f6020601f8301049050919050565b5f82821b905092915050565b5f60088302611ffa7fffffffffffffffffffffffffffffffffffffffffffffffffffffffffffffffff82611fbf565b6120048683611fbf565b95508019841693508086168417925050509392505050565b5f819050919050565b5f61203f61203a61203584611c7d565b61201c565b611c7d565b9050919050565b5f819050919050565b61205883612025565b61206c61206482612046565b848454611fcb565b825550505050565b5f90565b612080612074565b61208b81848461204f565b505050565b5b818110156120ae576120a35f82612078565b600181019050612091565b5050565b601f8211156120f3576120c481611f9e565b6120cd84611fb0565b810160208510156120dc578190505b6120f06120e885611fb0565b830182612090565b50505b505050565b5f82821c905092915050565b5f6121135f19846008026120f8565b1980831691505092915050565b5f61212b8383612104565b9150826002028217905092915050565b6121448261192d565b67ffffffffffffffff81111561215d5761215c6117c2565b5b6121678254611e78565b6121728282856120b2565b5f60209050601f8311600181146121a3575f8415612191578287015190505b61219b8582612120565b865550612202565b601f1984166121b186611f9e565b5f5b828110156121d8578489015182556001820191506020850194506020810190506121b3565b868310156121f557848901516121f1601f891682612104565b8355505b6001600288020188555050505b505050505050565b7f4d414e55464143545552454420627920000000000000000000000000000000005f82015250565b5f61223e601083611dfb565b91506122498261220a565b601082019050919050565b7f20617420000000000000000000000000000000000000000000000000000000005f82015250565b5f612288600483611dfb565b915061229382612254565b600482019050919050565b5f6122a882612232565b91506122b48285611e05565b91506122bf8261227c565b91506122cb8284611e05565b91508190509392505050565b5f6080820190508181035f8301526122ef8187611955565b905081810360208301526123038186611955565b905081810360408301526123178185611955565b905061232660608301846119bd565b95945050505050565b7f434f4c445f434841494e5f56494f4c4154494f4e3a20000000000000000000005f82015250565b5f612363601683611dfb565b915061236e8261232f565b601682019050919050565b7f20627920000000000000000000000000000000000000000000000000000000005f82015250565b5f6123ad600483611dfb565b91506123b882612379565b600482019050919050565b5f6123cd82612357565b91506123d98286611e05565b91506123e4826123a1565b91506123f08285611e05565b91506123fb8261227c565b91506124078284611e05565b9150819050949350505050565b5f6060820190508181035f83015261242c8186611955565b905061243b6020830185611c86565b818103604083015261244d8184611955565b9050949350505050565b7f44727567206e6f7420666f756e6420666f72206f776e657220636865636b2e005f82015250565b5f61248b601f83611937565b915061249682612457565b602082019050919050565b5f6020820190508181035f8301526124b88161247f565b9050919050565b7f4f6e6c79207468652063757272656e74206f776e6572206f66207468652064725f8201527f75672063616e20706572666f726d207468697320616374696f6e2e0000000000602082015250565b5f612519603b83611937565b9150612524826124bf565b604082019050919050565b5f6020820190508181035f8301526125468161250d565b9050919050565b7f4e6577206f776e65722063616e6e6f74206265207a65726f20616464726573735f8201527f2e00000000000000000000000000000000000000000000000000000000000000602082015250565b5f6125a7602183611937565b91506125b28261254d565b604082019050919050565b5f6020820190508181035f8301526125d48161259b565b9050919050565b7f5452414e534645525245442066726f6d200000000000000000000000000000005f82015250565b5f61260f601183611dfb565b915061261a826125db565b601182019050919050565b7f20746f20000000000000000000000000000000000000000000000000000000005f82015250565b5f612659600483611dfb565b915061266482612625565b600482019050919050565b7f20617320000000000000000000000000000000000000000000000000000000005f82015250565b5f6126a3600483611dfb565b91506126ae8261266f565b600482019050919050565b5f6126c382612603565b91506126cf8287611e05565b91506126da8261264d565b91506126e68286611e05565b91506126f182612697565b91506126fd8285611e05565b91506127088261227c565b91506127148284611e05565b915081905095945050505050565b5f6080820190508181035f83015261273a8187611955565b905061274960208301866119bd565b61275660408301856119bd565b81810360608301526127688184611955565b905095945050505050565b7f4e487b71000000000000000000000000000000000000000000000000000000005f52603260045260245ffd5b7f4e487b71000000000000000000000000000000000000000000000000000000005f52601160045260245ffd5b5f6127d782611c7d565b91506127e283611c7d565b92508282026127f081611c7d565b91508282048414831517612807576128066127a0565b5b5092915050565b5f61281882611c7d565b915061282383611c7d565b925082820190508082111561283b5761283a6127a0565b5b92915050565b5f61284b82611c7d565b91507fffffffffffffffffffffffffffffffffffffffffffffffffffffffffffffffff820361287d5761287c6127a0565b5b600182019050919050565b7f4e487b71000000000000000000000000000000000000000000000000000000005f52601260045260245ffd5b5f6128bf82611c7d565b91506128ca83611c7d565b9250826128da576128d9612888565b5b828204905092915050565b5f6128ef82611c7d565b91506128fa83611c7d565b9250828203905081811115612912576129116127a0565b5b92915050565b5f61292282611c7d565b915061292d83611c7d565b92508261293d5761293c612888565b5b82820690509291505056fea2646970667358221220a823a122942f51cb896008d7009fac50672b0df118fe6509f55c9f2c18d4efea64736f6c634300081a0033",
  "immutableReferences": {},
  "source": "// SPDX-License-Identifier: MIT\r\npragma solidity ^0.8.0;\r\n\r\nimport \"@openzeppelin/contracts/access/Ownable.sol\"; // Import Ownable for access control\r\n\r\ncontract DrugTracking is Ownable { // Inherit from Ownable\r\n    // Struct to represent a drug item\r\n    struct Drug {\r\n        string id;             // Unique identifier for the drug item (e.g., serialized GTIN)\r\n        string productId;      // Product identifier (e.g., GTIN)\r\n        string batchId;        // Batch identifier\r\n        address manufacturer;  // Address of the manufacturer\r\n        address currentOwner;  // Current owner of the drug item\r\n        string status;         // Current status (e.g., \"MANUFACTURED\", \"IN_TRANSIT\", \"RECEIVED_PHARMACY\")\r\n        uint256 lastUpdateTimestamp; // Timestamp of the last update\r\n        string[] history;      // Array of historical events for this drug\r\n    }\r\n\r\n    // Mapping from drug ID to Drug struct\r\n    mapping(string => Drug) public drugs;\r\n\r\n    // Events to log important actions\r\n    event DrugManufactured(string id, string productId, string batchId, address manufacturer);\r\n    event DrugTransferred(string id, address from, address to, string newStatus);\r\n    event ColdChainViolation(string id, uint256 timestamp, string details);\r\n\r\n    // --- Constructor ---\r\n    // The constructor is automatically called once when the contract is deployed.\r\n    // The 'Ownable' contract's constructor sets the deployer as the owner.\r\n    constructor() Ownable(msg.sender) {\r\n        // No specific initialization needed here beyond what Ownable does.\r\n    }\r\n\r\n    // Modifier to restrict access to the current owner (of the drug, not the contract)\r\n    // This modifier is useful if you want to allow the drug's current owner to perform actions.\r\n    // Note: This is different from onlyOwner (contract owner).\r\n    modifier onlyCurrentDrugOwner(string memory _drugId) {\r\n        require(bytes(drugs[_drugId].id).length > 0, \"Drug not found for owner check.\");\r\n        require(msg.sender == drugs[_drugId].currentOwner, \"Only the current owner of the drug can perform this action.\");\r\n        _;\r\n    }\r\n\r\n    // Function to register a new drug item (called by manufacturer)\r\n    // Only the contract owner can manufacture drugs (e.g., the system's central authority or a trusted manufacturer's address)\r\n    function manufactureDrug(string memory _id, string memory _productId, string memory _batchId)\r\n        public\r\n        onlyOwner // Only the contract owner can call this function\r\n    {\r\n        require(bytes(drugs[_id].id).length == 0, \"Drug with this ID already exists.\");\r\n\r\n        drugs[_id] = Drug({\r\n            id: _id,\r\n            productId: _productId,\r\n            batchId: _batchId,\r\n            manufacturer: msg.sender, // The contract owner is the manufacturer in this context\r\n            currentOwner: msg.sender, // Initial owner is the manufacturer\r\n            status: \"MANUFACTURED\",\r\n            lastUpdateTimestamp: block.timestamp,\r\n            history: new string[](0) // Initialize empty history\r\n        });\r\n\r\n        drugs[_id].history.push(string(abi.encodePacked(\"MANUFACTURED by \", addressToString(msg.sender), \" at \", uint256ToString(block.timestamp))));\r\n        emit DrugManufactured(_id, _productId, _batchId, msg.sender);\r\n    }\r\n\r\n    // Function to transfer ownership of a drug item\r\n    // This function can be called by the current owner of the drug\r\n    function transferDrug(string memory _id, address _newOwner, string memory _newStatus)\r\n        public\r\n        onlyCurrentDrugOwner(_id) // Only the current owner of the drug can transfer it\r\n    {\r\n        require(bytes(drugs[_id].id).length > 0, \"Drug not found.\");\r\n        require(_newOwner != address(0), \"New owner cannot be zero address.\");\r\n\r\n        address oldOwner = drugs[_id].currentOwner;\r\n        drugs[_id].currentOwner = _newOwner;\r\n        drugs[_id].status = _newStatus;\r\n        drugs[_id].lastUpdateTimestamp = block.timestamp;\r\n\r\n        drugs[_id].history.push(string(abi.encodePacked(\"TRANSFERRED from \", addressToString(oldOwner), \" to \", addressToString(_newOwner), \" as \", _newStatus, \" at \", uint256ToString(block.timestamp))));\r\n        emit DrugTransferred(_id, oldOwner, _newOwner, _newStatus);\r\n    }\r\n\r\n    // Function to log a cold chain violation\r\n    // Only the contract owner can log violations (e.g., a trusted IoT gateway or regulator)\r\n    function logColdChainViolation(string memory _id, string memory _details)\r\n        public\r\n        onlyOwner // Restrict to contract owner\r\n    {\r\n        require(bytes(drugs[_id].id).length > 0, \"Drug not found.\");\r\n        drugs[_id].history.push(string(abi.encodePacked(\"COLD_CHAIN_VIOLATION: \", _details, \" by \", addressToString(msg.sender), \" at \", uint256ToString(block.timestamp))));\r\n        emit ColdChainViolation(_id, block.timestamp, _details);\r\n    }\r\n\r\n    // Function to verify a drug's authenticity and retrieve its history\r\n    function verifyDrug(string memory _id)\r\n        public\r\n        view // This remains a view function\r\n        returns (string memory productId, string memory batchId, address manufacturer, address currentOwner, string memory status, string[] memory history)\r\n    {\r\n        require(bytes(drugs[_id].id).length > 0, \"Drug not found.\");\r\n        return (\r\n            drugs[_id].productId,\r\n            drugs[_id].batchId,\r\n            drugs[_id].manufacturer,\r\n            drugs[_id].currentOwner,\r\n            drugs[_id].status,\r\n            drugs[_id].history\r\n        );\r\n    }\r\n\r\n    // --- Helper functions for string conversion (for history logging) ---\r\n    // These are pure functions, meaning they don't read or modify state.\r\n    function addressToString(address _address) internal pure returns (string memory) {\r\n        bytes32 value = bytes32(uint256(uint160(_address)));\r\n        bytes memory alphabet = \"0123456789abcdef\";\r\n        bytes memory str = new bytes(42); // \"0x\" + 20 bytes * 2 chars/byte = 42 chars\r\n        str[0] = '0';\r\n        str[1] = 'x';\r\n        for (uint i = 0; i < 20; i++) {\r\n            str[2+i*2] = alphabet[uint8(value[i] >> 4)];\r\n            str[3+i*2] = alphabet[uint8(value[i] & 0x0f)];\r\n        }\r\n        return string(str);\r\n    }\r\n\r\n    function uint256ToString(uint256 _value) internal pure returns (string memory) {\r\n        if (_value == 0) {\r\n            return \"0\";\r\n        }\r\n        uint256 temp = _value;\r\n        uint256 digits;\r\n        while (temp != 0) {\r\n            digits++;\r\n            temp /= 10;\r\n        }\r\n        bytes memory buffer = new bytes(digits);\r\n        while (_value != 0) {\r\n            digits -= 1;\r\n            buffer[digits] = bytes1(uint8(48 + uint256(_value % 10)));\r\n            _value /= 10;\r\n        }\r\n        return string(buffer);\r\n    }\r\n}\r\n",
  "sourcePath": "D:\\Counterfeit-Medicines-and-Drugs-using-Blockchain\\blockchain\\contracts\\DrugTracking.sol",
  "compiler": {
    "name": "solc",
    "version": "0.8.26+commit.8a97fa7a.Emscripten.clang"
  },
  "schemaVersion": "3.4.16",
  "updatedAt": "2025-06-29T16:36:47.370Z",
  "networkType": "ethereum",
  "devdoc": {
    "errors": {
      "OwnableInvalidOwner(address)": [
        {
          "details": "The owner is not a valid owner account. (eg. `address(0)`)"
        }
      ],
      "OwnableUnauthorizedAccount(address)": [
        {
          "details": "The caller account is not authorized to perform an operation."
        }
      ]
    },
    "kind": "dev",
    "methods": {
      "owner()": {
        "details": "Returns the address of the current owner."
      },
      "renounceOwnership()": {
        "details": "Leaves the contract without owner. It will not be possible to call `onlyOwner` functions. Can only be called by the current owner. NOTE: Renouncing ownership will leave the contract without an owner, thereby disabling any functionality that is only available to the owner."
      },
      "transferOwnership(address)": {
        "details": "Transfers ownership of the contract to a new account (`newOwner`). Can only be called by the current owner."
      }
    },
    "version": 1
  },
  "userdoc": {
    "kind": "user",
    "methods": {},
    "version": 1
  }
}