{
  "contractName": "DrugTracking",
  "abi": [
    {
      "anonymous": false,
      "inputs": [
        {
          "indexed": false,
          "internalType": "string",
          "name": "id",
          "type": "string"
        },
        {
          "indexed": false,
          "internalType": "uint256",
          "name": "timestamp",
          "type": "uint256"
        },
        {
          "indexed": false,
          "internalType": "string",
          "name": "details",
          "type": "string"
        }
      ],
      "name": "ColdChainViolation",
      "type": "event"
    },
    {
      "anonymous": false,
      "inputs": [
        {
          "indexed": false,
          "internalType": "string",
          "name": "id",
          "type": "string"
        },
        {
          "indexed": false,
          "internalType": "string",
          "name": "productId",
          "type": "string"
        },
        {
          "indexed": false,
          "internalType": "string",
          "name": "batchId",
          "type": "string"
        },
        {
          "indexed": false,
          "internalType": "address",
          "name": "manufacturer",
          "type": "address"
        }
      ],
      "name": "DrugManufactured",
      "type": "event"
    },
    {
      "anonymous": false,
      "inputs": [
        {
          "indexed": false,
          "internalType": "string",
          "name": "id",
          "type": "string"
        },
        {
          "indexed": false,
          "internalType": "address",
          "name": "from",
          "type": "address"
        },
        {
          "indexed": false,
          "internalType": "address",
          "name": "to",
          "type": "address"
        },
        {
          "indexed": false,
          "internalType": "string",
          "name": "newStatus",
          "type": "string"
        }
      ],
      "name": "DrugTransferred",
      "type": "event"
    },
    {
      "inputs": [
        {
          "internalType": "string",
          "name": "",
          "type": "string"
        }
      ],
      "name": "drugs",
      "outputs": [
        {
          "internalType": "string",
          "name": "id",
          "type": "string"
        },
        {
          "internalType": "string",
          "name": "productId",
          "type": "string"
        },
        {
          "internalType": "string",
          "name": "batchId",
          "type": "string"
        },
        {
          "internalType": "address",
          "name": "manufacturer",
          "type": "address"
        },
        {
          "internalType": "address",
          "name": "currentOwner",
          "type": "address"
        },
        {
          "internalType": "string",
          "name": "status",
          "type": "string"
        },
        {
          "internalType": "uint256",
          "name": "lastUpdateTimestamp",
          "type": "uint256"
        }
      ],
      "stateMutability": "view",
      "type": "function",
      "constant": true
    },
    {
      "inputs": [
        {
          "internalType": "string",
          "name": "_id",
          "type": "string"
        },
        {
          "internalType": "string",
          "name": "_productId",
          "type": "string"
        },
        {
          "internalType": "string",
          "name": "_batchId",
          "type": "string"
        }
      ],
      "name": "manufactureDrug",
      "outputs": [],
      "stateMutability": "nonpayable",
      "type": "function"
    },
    {
      "inputs": [
        {
          "internalType": "string",
          "name": "_id",
          "type": "string"
        },
        {
          "internalType": "address",
          "name": "_newOwner",
          "type": "address"
        },
        {
          "internalType": "string",
          "name": "_newStatus",
          "type": "string"
        }
      ],
      "name": "transferDrug",
      "outputs": [],
      "stateMutability": "nonpayable",
      "type": "function"
    },
    {
      "inputs": [
        {
          "internalType": "string",
          "name": "_id",
          "type": "string"
        },
        {
          "internalType": "string",
          "name": "_details",
          "type": "string"
        }
      ],
      "name": "logColdChainViolation",
      "outputs": [],
      "stateMutability": "nonpayable",
      "type": "function"
    },
    {
      "inputs": [
        {
          "internalType": "string",
          "name": "_id",
          "type": "string"
        }
      ],
      "name": "verifyDrug",
      "outputs": [
        {
          "internalType": "string",
          "name": "productId",
          "type": "string"
        },
        {
          "internalType": "string",
          "name": "batchId",
          "type": "string"
        },
        {
          "internalType": "address",
          "name": "manufacturer",
          "type": "address"
        },
        {
          "internalType": "address",
          "name": "currentOwner",
          "type": "address"
        },
        {
          "internalType": "string",
          "name": "status",
          "type": "string"
        },
        {
          "internalType": "string[]",
          "name": "history",
          "type": "string[]"
        }
      ],
      "stateMutability": "view",
      "type": "function",
      "constant": true
    }
  ],
  "bytecode": "0x608060405234801561001057600080fd5b50612655806100206000396000f3fe608060405234801561001057600080fd5b50600436106100575760003560e01c80633b7b0a741461005c5780635a05973d14610091578063722b743d146100ad578063b009493d146100c9578063d5ccb940146100ff575b600080fd5b6100766004803603810190610071919061185c565b61011b565b60405161008896959493929190611fe3565b60405180910390f35b6100ab60048036038101906100a69190611988565b610527565b005b6100c760048036038101906100c2919061191c565b6108bd565b005b6100e360048036038101906100de919061185c565b6109ef565b6040516100f697969594939291906120ba565b60405180910390f35b6101196004803603810190610114919061189d565b610ca7565b005b606080600080606080600080886040516101359190611e9b565b908152602001604051809103902060000180546101519061248f565b905011610193576040517f08c379a000000000000000000000000000000000000000000000000000000000815260040161018a906121aa565b60405180910390fd5b6000876040516101a39190611e9b565b90815260200160405180910390206001016000886040516101c49190611e9b565b90815260200160405180910390206002016000896040516101e59190611e9b565b908152602001604051809103902060030160009054906101000a900473ffffffffffffffffffffffffffffffffffffffff1660008a6040516102279190611e9b565b908152602001604051809103902060040160009054906101000a900473ffffffffffffffffffffffffffffffffffffffff1660008b6040516102699190611e9b565b908152602001604051809103902060050160008c60405161028a9190611e9b565b90815260200160405180910390206007018580546102a79061248f565b80601f01602080910402602001604051908101604052809291908181526020018280546102d39061248f565b80156103205780601f106102f557610100808354040283529160200191610320565b820191906000526020600020905b81548152906001019060200180831161030357829003601f168201915b505050505095508480546103339061248f565b80601f016020809104026020016040519081016040528092919081815260200182805461035f9061248f565b80156103ac5780601f10610381576101008083540402835291602001916103ac565b820191906000526020600020905b81548152906001019060200180831161038f57829003601f168201915b505050505094508180546103bf9061248f565b80601f01602080910402602001604051908101604052809291908181526020018280546103eb9061248f565b80156104385780601f1061040d57610100808354040283529160200191610438565b820191906000526020600020905b81548152906001019060200180831161041b57829003601f168201915b5050505050915080805480602002602001604051908101604052809291908181526020016000905b8282101561050c57838290600052602060002001805461047f9061248f565b80601f01602080910402602001604051908101604052809291908181526020018280546104ab9061248f565b80156104f85780601f106104cd576101008083540402835291602001916104f8565b820191906000526020600020905b8154815290600101906020018083116104db57829003601f168201915b505050505081526020019060010190610460565b50505050905095509550955095509550955091939550919395565b600080846040516105389190611e9b565b908152602001604051809103902060000180546105549061248f565b905014610596576040517f08c379a000000000000000000000000000000000000000000000000000000000815260040161058d906121ca565b60405180910390fd5b6040518061010001604052808481526020018381526020018281526020013373ffffffffffffffffffffffffffffffffffffffff1681526020013373ffffffffffffffffffffffffffffffffffffffff1681526020016040518060400160405280600c81526020017f4d414e55464143545552454400000000000000000000000000000000000000008152508152602001428152602001600067ffffffffffffffff81111561066e577f4e487b7100000000000000000000000000000000000000000000000000000000600052604160045260246000fd5b6040519080825280602002602001820160405280156106a157816020015b606081526020019060019003908161068c5790505b508152506000846040516106b59190611e9b565b908152602001604051809103902060008201518160000190805190602001906106df929190611678565b5060208201518160010190805190602001906106fc929190611678565b506040820151816002019080519060200190610719929190611678565b5060608201518160030160006101000a81548173ffffffffffffffffffffffffffffffffffffffff021916908373ffffffffffffffffffffffffffffffffffffffff16021790555060808201518160040160006101000a81548173ffffffffffffffffffffffffffffffffffffffff021916908373ffffffffffffffffffffffffffffffffffffffff16021790555060a08201518160050190805190602001906107c4929190611678565b5060c0820151816006015560e08201518160070190805190602001906107eb9291906116fe565b509050506000836040516107ff9190611e9b565b908152602001604051809103902060070161081933611082565b610822426114cb565b604051602001610833929190611f56565b60405160208183030381529060405290806001815401808255809150506001900390600052602060002001600090919091909150908051906020019061087a929190611678565b507f9895ccb07b2d9d1127dc80aedcc8f102de79a9af92d354c80e99750cf3b75372838383336040516108b09493929190612060565b60405180910390a1505050565b600080836040516108ce9190611e9b565b908152602001604051809103902060000180546108ea9061248f565b90501161092c576040517f08c379a0000000000000000000000000000000000000000000000000000000008152600401610923906121aa565b60405180910390fd5b60008260405161093c9190611e9b565b908152602001604051809103902060070181610957426114cb565b604051602001610968929190611f1c565b6040516020818303038152906040529080600181540180825580915050600190039060005260206000200160009091909190915090805190602001906109af929190611678565b507fa4b5f4d6d86454a9f5a5bfc80cd041bed01c182b643da02c6c0cd6cc12e823998242836040516109e393929190612145565b60405180910390a15050565b600081805160208101820180518482526020830160208501208183528095505050505050600091509050806000018054610a289061248f565b80601f0160208091040260200160405190810160405280929190818152602001828054610a549061248f565b8015610aa15780601f10610a7657610100808354040283529160200191610aa1565b820191906000526020600020905b815481529060010190602001808311610a8457829003601f168201915b505050505090806001018054610ab69061248f565b80601f0160208091040260200160405190810160405280929190818152602001828054610ae29061248f565b8015610b2f5780601f10610b0457610100808354040283529160200191610b2f565b820191906000526020600020905b815481529060010190602001808311610b1257829003601f168201915b505050505090806002018054610b449061248f565b80601f0160208091040260200160405190810160405280929190818152602001828054610b709061248f565b8015610bbd5780601f10610b9257610100808354040283529160200191610bbd565b820191906000526020600020905b815481529060010190602001808311610ba057829003601f168201915b5050505050908060030160009054906101000a900473ffffffffffffffffffffffffffffffffffffffff16908060040160009054906101000a900473ffffffffffffffffffffffffffffffffffffffff1690806005018054610c1e9061248f565b80601f0160208091040260200160405190810160405280929190818152602001828054610c4a9061248f565b8015610c975780601f10610c6c57610100808354040283529160200191610c97565b820191906000526020600020905b815481529060010190602001808311610c7a57829003601f168201915b5050505050908060060154905087565b8260008082604051610cb99190611e9b565b90815260200160405180910390206000018054610cd59061248f565b905011610d17576040517f08c379a0000000000000000000000000000000000000000000000000000000008152600401610d0e9061220a565b60405180910390fd5b600081604051610d279190611e9b565b908152602001604051809103902060040160009054906101000a900473ffffffffffffffffffffffffffffffffffffffff1673ffffffffffffffffffffffffffffffffffffffff163373ffffffffffffffffffffffffffffffffffffffff1614610dc6576040517f08c379a0000000000000000000000000000000000000000000000000000000008152600401610dbd9061218a565b60405180910390fd5b60008085604051610dd79190611e9b565b90815260200160405180910390206000018054610df39061248f565b905011610e35576040517f08c379a0000000000000000000000000000000000000000000000000000000008152600401610e2c906121aa565b60405180910390fd5b600073ffffffffffffffffffffffffffffffffffffffff168373ffffffffffffffffffffffffffffffffffffffff161415610ea5576040517f08c379a0000000000000000000000000000000000000000000000000000000008152600401610e9c906121ea565b60405180910390fd5b60008085604051610eb69190611e9b565b908152602001604051809103902060040160009054906101000a900473ffffffffffffffffffffffffffffffffffffffff16905083600086604051610efb9190611e9b565b908152602001604051809103902060040160006101000a81548173ffffffffffffffffffffffffffffffffffffffff021916908373ffffffffffffffffffffffffffffffffffffffff16021790555082600086604051610f5b9190611e9b565b90815260200160405180910390206005019080519060200190610f7f929190611678565b5042600086604051610f919190611e9b565b908152602001604051809103902060060181905550600085604051610fb69190611e9b565b9081526020016040518091039020600701610fd082611082565b610fd986611082565b85610fe3426114cb565b604051602001610ff69493929190611eb2565b60405160208183030381529060405290806001815401808255809150506001900390600052602060002001600090919091909150908051906020019061103d929190611678565b507f772cf988c6c8639e7b31e1e4a5786c5eb66313b250ccfb5e941e68626a64b30e858286866040516110739493929190611f90565b60405180910390a15050505050565b606060008273ffffffffffffffffffffffffffffffffffffffff1660001b905060006040518060400160405280601081526020017f303132333435363738396162636465660000000000000000000000000000000081525090506000602a67ffffffffffffffff81111561111f577f4e487b7100000000000000000000000000000000000000000000000000000000600052604160045260246000fd5b6040519080825280601f01601f1916602001820160405280156111515781602001600182028036833780820191505090505b5090507f3000000000000000000000000000000000000000000000000000000000000000816000815181106111af577f4e487b7100000000000000000000000000000000000000000000000000000000600052603260045260246000fd5b60200101907effffffffffffffffffffffffffffffffffffffffffffffffffffffffffffff1916908160001a9053507f780000000000000000000000000000000000000000000000000000000000000081600181518110611239577f4e487b7100000000000000000000000000000000000000000000000000000000600052603260045260246000fd5b60200101907effffffffffffffffffffffffffffffffffffffffffffffffffffffffffffff1916908160001a90535060005b60148110156114bf578260048583602081106112b0577f4e487b7100000000000000000000000000000000000000000000000000000000600052603260045260246000fd5b1a60f81b7effffffffffffffffffffffffffffffffffffffffffffffffffffffffffffff1916901c60f81c60ff1681518110611315577f4e487b7100000000000000000000000000000000000000000000000000000000600052603260045260246000fd5b602001015160f81c60f81b8260028361132e9190612383565b600261133a91906122fc565b81518110611371577f4e487b7100000000000000000000000000000000000000000000000000000000600052603260045260246000fd5b60200101907effffffffffffffffffffffffffffffffffffffffffffffffffffffffffffff1916908160001a90535082600f60f81b8583602081106113df577f4e487b7100000000000000000000000000000000000000000000000000000000600052603260045260246000fd5b1a60f81b1660f81c60ff1681518110611421577f4e487b7100000000000000000000000000000000000000000000000000000000600052603260045260246000fd5b602001015160f81c60f81b8260028361143a9190612383565b600361144691906122fc565b8151811061147d577f4e487b7100000000000000000000000000000000000000000000000000000000600052603260045260246000fd5b60200101907effffffffffffffffffffffffffffffffffffffffffffffffffffffffffffff1916908160001a90535080806114b7906124c1565b91505061126b565b50809350505050919050565b60606000821415611513576040518060400160405280600181526020017f30000000000000000000000000000000000000000000000000000000000000008152509050611673565b600082905060005b6000821461154557808061152e906124c1565b915050600a8261153e9190612352565b915061151b565b60008167ffffffffffffffff811115611587577f4e487b7100000000000000000000000000000000000000000000000000000000600052604160045260246000fd5b6040519080825280601f01601f1916602001820160405280156115b95781602001600182028036833780820191505090505b5090505b6000851461166c576001826115d291906123dd565b9150600a856115e1919061250a565b60306115ed91906122fc565b60f81b818381518110611629577f4e487b7100000000000000000000000000000000000000000000000000000000600052603260045260246000fd5b60200101907effffffffffffffffffffffffffffffffffffffffffffffffffffffffffffff1916908160001a905350600a856116659190612352565b94506115bd565b8093505050505b919050565b8280546116849061248f565b90600052602060002090601f0160209004810192826116a657600085556116ed565b82601f106116bf57805160ff19168380011785556116ed565b828001600101855582156116ed579182015b828111156116ec5782518255916020019190600101906116d1565b5b5090506116fa919061175e565b5090565b82805482825590600052602060002090810192821561174d579160200282015b8281111561174c57825182908051906020019061173c929190611678565b509160200191906001019061171e565b5b50905061175a919061177b565b5090565b5b8082111561177757600081600090555060010161175f565b5090565b5b8082111561179b5760008181611792919061179f565b5060010161177c565b5090565b5080546117ab9061248f565b6000825580601f106117bd57506117dc565b601f0160209004906000526020600020908101906117db919061175e565b5b50565b60006117f26117ed8461225b565b61222a565b90508281526020810184848401111561180a57600080fd5b61181584828561244d565b509392505050565b60008135905061182c81612608565b92915050565b600082601f83011261184357600080fd5b81356118538482602086016117df565b91505092915050565b60006020828403121561186e57600080fd5b600082013567ffffffffffffffff81111561188857600080fd5b61189484828501611832565b91505092915050565b6000806000606084860312156118b257600080fd5b600084013567ffffffffffffffff8111156118cc57600080fd5b6118d886828701611832565b93505060206118e98682870161181d565b925050604084013567ffffffffffffffff81111561190657600080fd5b61191286828701611832565b9150509250925092565b6000806040838503121561192f57600080fd5b600083013567ffffffffffffffff81111561194957600080fd5b61195585828601611832565b925050602083013567ffffffffffffffff81111561197257600080fd5b61197e85828601611832565b9150509250929050565b60008060006060848603121561199d57600080fd5b600084013567ffffffffffffffff8111156119b757600080fd5b6119c386828701611832565b935050602084013567ffffffffffffffff8111156119e057600080fd5b6119ec86828701611832565b925050604084013567ffffffffffffffff811115611a0957600080fd5b611a1586828701611832565b9150509250925092565b6000611a2b8383611ab7565b905092915050565b611a3c81612411565b82525050565b6000611a4d8261229b565b611a5781856122be565b935083602082028501611a698561228b565b8060005b85811015611aa55784840389528151611a868582611a1f565b9450611a91836122b1565b925060208a01995050600181019050611a6d565b50829750879550505050505092915050565b6000611ac2826122a6565b611acc81856122cf565b9350611adc81856020860161245c565b611ae5816125f7565b840191505092915050565b6000611afb826122a6565b611b0581856122e0565b9350611b1581856020860161245c565b611b1e816125f7565b840191505092915050565b6000611b34826122a6565b611b3e81856122f1565b9350611b4e81856020860161245c565b80840191505092915050565b6000611b676011836122f1565b91507f5452414e534645525245442066726f6d200000000000000000000000000000006000830152601182019050919050565b6000611ba7602f836122e0565b91507f4f6e6c79207468652063757272656e74206f776e65722063616e20706572666f60008301527f726d207468697320616374696f6e2e00000000000000000000000000000000006020830152604082019050919050565b6000611c0d6004836122f1565b91507f20617420000000000000000000000000000000000000000000000000000000006000830152600482019050919050565b6000611c4d600f836122e0565b91507f44727567206e6f7420666f756e642e00000000000000000000000000000000006000830152602082019050919050565b6000611c8d6004836122f1565b91507f20617320000000000000000000000000000000000000000000000000000000006000830152600482019050919050565b6000611ccd6021836122e0565b91507f447275672077697468207468697320494420616c72656164792065786973747360008301527f2e000000000000000000000000000000000000000000000000000000000000006020830152604082019050919050565b6000611d336021836122e0565b91507f4e6577206f776e65722063616e6e6f74206265207a65726f206164647265737360008301527f2e000000000000000000000000000000000000000000000000000000000000006020830152604082019050919050565b6000611d996004836122f1565b91507f20746f20000000000000000000000000000000000000000000000000000000006000830152600482019050919050565b6000611dd96016836122f1565b91507f434f4c445f434841494e5f56494f4c4154494f4e3a20000000000000000000006000830152601682019050919050565b6000611e19601f836122e0565b91507f44727567206e6f7420666f756e6420666f72206f776e657220636865636b2e006000830152602082019050919050565b6000611e596010836122f1565b91507f4d414e55464143545552454420627920000000000000000000000000000000006000830152601082019050919050565b611e9581612443565b82525050565b6000611ea78284611b29565b915081905092915050565b6000611ebd82611b5a565b9150611ec98287611b29565b9150611ed482611d8c565b9150611ee08286611b29565b9150611eeb82611c80565b9150611ef78285611b29565b9150611f0282611c00565b9150611f0e8284611b29565b915081905095945050505050565b6000611f2782611dcc565b9150611f338285611b29565b9150611f3e82611c00565b9150611f4a8284611b29565b91508190509392505050565b6000611f6182611e4c565b9150611f6d8285611b29565b9150611f7882611c00565b9150611f848284611b29565b91508190509392505050565b60006080820190508181036000830152611faa8187611af0565b9050611fb96020830186611a33565b611fc66040830185611a33565b8181036060830152611fd88184611af0565b905095945050505050565b600060c0820190508181036000830152611ffd8189611af0565b905081810360208301526120118188611af0565b90506120206040830187611a33565b61202d6060830186611a33565b818103608083015261203f8185611af0565b905081810360a08301526120538184611a42565b9050979650505050505050565b6000608082019050818103600083015261207a8187611af0565b9050818103602083015261208e8186611af0565b905081810360408301526120a28185611af0565b90506120b16060830184611a33565b95945050505050565b600060e08201905081810360008301526120d4818a611af0565b905081810360208301526120e88189611af0565b905081810360408301526120fc8188611af0565b905061210b6060830187611a33565b6121186080830186611a33565b81810360a083015261212a8185611af0565b905061213960c0830184611e8c565b98975050505050505050565b6000606082019050818103600083015261215f8186611af0565b905061216e6020830185611e8c565b81810360408301526121808184611af0565b9050949350505050565b600060208201905081810360008301526121a381611b9a565b9050919050565b600060208201905081810360008301526121c381611c40565b9050919050565b600060208201905081810360008301526121e381611cc0565b9050919050565b6000602082019050818103600083015261220381611d26565b9050919050565b6000602082019050818103600083015261222381611e0c565b9050919050565b6000604051905081810181811067ffffffffffffffff82111715612251576122506125c8565b5b8060405250919050565b600067ffffffffffffffff821115612276576122756125c8565b5b601f19601f8301169050602081019050919050565b6000819050602082019050919050565b600081519050919050565b600081519050919050565b6000602082019050919050565b600082825260208201905092915050565b600082825260208201905092915050565b600082825260208201905092915050565b600081905092915050565b600061230782612443565b915061231283612443565b9250827fffffffffffffffffffffffffffffffffffffffffffffffffffffffffffffffff038211156123475761234661253b565b5b828201905092915050565b600061235d82612443565b915061236883612443565b9250826123785761237761256a565b5b828204905092915050565b600061238e82612443565b915061239983612443565b9250817fffffffffffffffffffffffffffffffffffffffffffffffffffffffffffffffff04831182151516156123d2576123d161253b565b5b828202905092915050565b60006123e882612443565b91506123f383612443565b9250828210156124065761240561253b565b5b828203905092915050565b600061241c82612423565b9050919050565b600073ffffffffffffffffffffffffffffffffffffffff82169050919050565b6000819050919050565b82818337600083830152505050565b60005b8381101561247a57808201518184015260208101905061245f565b83811115612489576000848401525b50505050565b600060028204905060018216806124a757607f821691505b602082108114156124bb576124ba612599565b5b50919050565b60006124cc82612443565b91507fffffffffffffffffffffffffffffffffffffffffffffffffffffffffffffffff8214156124ff576124fe61253b565b5b600182019050919050565b600061251582612443565b915061252083612443565b9250826125305761252f61256a565b5b828206905092915050565b7f4e487b7100000000000000000000000000000000000000000000000000000000600052601160045260246000fd5b7f4e487b7100000000000000000000000000000000000000000000000000000000600052601260045260246000fd5b7f4e487b7100000000000000000000000000000000000000000000000000000000600052602260045260246000fd5b7f4e487b7100000000000000000000000000000000000000000000000000000000600052604160045260246000fd5b6000601f19601f8301169050919050565b61261181612411565b811461261c57600080fd5b5056fea264697066735822122049f7d6fcdfe3ab2e968c5ce732bd43be74f5227e942738688ded6afe410e55da64736f6c63430008000033",
  "immutableReferences": {},
  "source": "// SPDX-License-Identifier: MIT\r\npragma solidity ^0.8.0;\r\n\r\ncontract DrugTracking {\r\n    // Struct to represent a drug item\r\n    struct Drug {\r\n        string id;             // Unique identifier for the drug item (e.g., serialized GTIN)\r\n        string productId;      // Product identifier (e.g., GTIN)\r\n        string batchId;        // Batch identifier\r\n        address manufacturer;  // Address of the manufacturer\r\n        address currentOwner;  // Current owner of the drug item\r\n        string status;         // Current status (e.g., \"MANUFACTURED\", \"IN_TRANSIT\", \"RECEIVED_PHARMACY\")\r\n        uint256 lastUpdateTimestamp; // Timestamp of the last update\r\n        string[] history;      // Array of historical events for this drug\r\n    }\r\n\r\n    // Mapping from drug ID to Drug struct\r\n    mapping(string => Drug) public drugs;\r\n\r\n    // Events to log important actions\r\n    event DrugManufactured(string id, string productId, string batchId, address manufacturer);\r\n    event DrugTransferred(string id, address from, address to, string newStatus);\r\n    // Removed: event DrugVerified(string id, address verifier); // This event is no longer emitted from a view function\r\n    event ColdChainViolation(string id, uint256 timestamp, string details);\r\n\r\n    // Modifier to restrict access to the manufacturer\r\n    modifier onlyManufacturer(string memory _drugId) {\r\n        require(msg.sender == drugs[_drugId].manufacturer, \"Only the manufacturer can perform this action.\");\r\n        _;\r\n    }\r\n\r\n    // Modifier to restrict access to the current owner\r\n    modifier onlyCurrentOwner(string memory _drugId) {\r\n        require(bytes(drugs[_drugId].id).length > 0, \"Drug not found for owner check.\");\r\n        require(msg.sender == drugs[_drugId].currentOwner, \"Only the current owner can perform this action.\");\r\n        _;\r\n    }\r\n\r\n    // Function to register a new drug item (called by manufacturer)\r\n    function manufactureDrug(string memory _id, string memory _productId, string memory _batchId)\r\n        public\r\n    {\r\n        require(bytes(drugs[_id].id).length == 0, \"Drug with this ID already exists.\");\r\n\r\n        drugs[_id] = Drug({\r\n            id: _id,\r\n            productId: _productId,\r\n            batchId: _batchId,\r\n            manufacturer: msg.sender,\r\n            currentOwner: msg.sender,\r\n            status: \"MANUFACTURED\",\r\n            lastUpdateTimestamp: block.timestamp,\r\n            history: new string[](0) // Initialize empty history\r\n        });\r\n\r\n        drugs[_id].history.push(string(abi.encodePacked(\"MANUFACTURED by \", addressToString(msg.sender), \" at \", uint256ToString(block.timestamp))));\r\n        emit DrugManufactured(_id, _productId, _batchId, msg.sender);\r\n    }\r\n\r\n    // Function to transfer ownership of a drug item\r\n    function transferDrug(string memory _id, address _newOwner, string memory _newStatus)\r\n        public\r\n        onlyCurrentOwner(_id)\r\n    {\r\n        require(bytes(drugs[_id].id).length > 0, \"Drug not found.\");\r\n        require(_newOwner != address(0), \"New owner cannot be zero address.\");\r\n\r\n        address oldOwner = drugs[_id].currentOwner;\r\n        drugs[_id].currentOwner = _newOwner;\r\n        drugs[_id].status = _newStatus;\r\n        drugs[_id].lastUpdateTimestamp = block.timestamp;\r\n\r\n        drugs[_id].history.push(string(abi.encodePacked(\"TRANSFERRED from \", addressToString(oldOwner), \" to \", addressToString(_newOwner), \" as \", _newStatus, \" at \", uint256ToString(block.timestamp))));\r\n        emit DrugTransferred(_id, oldOwner, _newOwner, _newStatus);\r\n    }\r\n\r\n    // Function to log a cold chain violation\r\n    function logColdChainViolation(string memory _id, string memory _details)\r\n        public\r\n        // Consider adding a modifier here to restrict who can log violations (e.g., current owner, regulator)\r\n    {\r\n        require(bytes(drugs[_id].id).length > 0, \"Drug not found.\");\r\n        drugs[_id].history.push(string(abi.encodePacked(\"COLD_CHAIN_VIOLATION: \", _details, \" at \", uint256ToString(block.timestamp))));\r\n        emit ColdChainViolation(_id, block.timestamp, _details);\r\n    }\r\n\r\n    // Function to verify a drug's authenticity and retrieve its history\r\n    function verifyDrug(string memory _id)\r\n        public\r\n        view // This remains a view function\r\n        returns (string memory productId, string memory batchId, address manufacturer, address currentOwner, string memory status, string[] memory history)\r\n    {\r\n        require(bytes(drugs[_id].id).length > 0, \"Drug not found.\");\r\n        // Removed the 'emit DrugVerified' statement from here\r\n        return (\r\n            drugs[_id].productId,\r\n            drugs[_id].batchId,\r\n            drugs[_id].manufacturer,\r\n            drugs[_id].currentOwner,\r\n            drugs[_id].status,\r\n            drugs[_id].history\r\n        );\r\n    }\r\n\r\n    // --- Helper functions for string conversion (for history logging) ---\r\n    function addressToString(address _address) internal pure returns (string memory) {\r\n        bytes32 value = bytes32(uint256(uint160(_address)));\r\n        bytes memory alphabet = \"0123456789abcdef\";\r\n        bytes memory str = new bytes(42);\r\n        str[0] = '0';\r\n        str[1] = 'x';\r\n        for (uint i = 0; i < 20; i++) {\r\n            str[2+i*2] = alphabet[uint8(value[i] >> 4)];\r\n            str[3+i*2] = alphabet[uint8(value[i] & 0x0f)];\r\n        }\r\n        return string(str);\r\n    }\r\n\r\n    function uint256ToString(uint256 _value) internal pure returns (string memory) {\r\n        if (_value == 0) {\r\n            return \"0\";\r\n        }\r\n        uint256 temp = _value;\r\n        uint256 digits;\r\n        while (temp != 0) {\r\n            digits++;\r\n            temp /= 10;\r\n        }\r\n        bytes memory buffer = new bytes(digits);\r\n        while (_value != 0) {\r\n            digits -= 1;\r\n            buffer[digits] = bytes1(uint8(48 + uint256(_value % 10)));\r\n            _value /= 10;\r\n        }\r\n        return string(buffer);\r\n    }\r\n}\r\n",
  "sourcePath": "D:\\Counterfeit-Medicines-and-Drugs-using-Blockchain\\blockchain\\contracts\\DrugTracking.sol",
  "compiler": {
    "name": "solc",
    "version": "0.8.0+commit.c7dfd78e.Emscripten.clang"
  },
  "schemaVersion": "3.4.16",
  "updatedAt": "2025-06-29T04:54:38.122Z",
  "networkType": "ethereum",
  "devdoc": {
    "kind": "dev",
    "methods": {},
    "version": 1
  },
  "userdoc": {
    "kind": "user",
    "methods": {},
    "version": 1
  }
}