{
  "contractName": "DrugTracking",
  "abi": [
    {
      "inputs": [],
      "stateMutability": "nonpayable",
      "type": "constructor"
    },
    {
      "inputs": [],
      "name": "AccessControlBadConfirmation",
      "type": "error"
    },
    {
      "inputs": [
        {
          "internalType": "address",
          "name": "account",
          "type": "address"
        },
        {
          "internalType": "bytes32",
          "name": "neededRole",
          "type": "bytes32"
        }
      ],
      "name": "AccessControlUnauthorizedAccount",
      "type": "error"
    },
    {
      "inputs": [
        {
          "internalType": "address",
          "name": "owner",
          "type": "address"
        }
      ],
      "name": "OwnableInvalidOwner",
      "type": "error"
    },
    {
      "inputs": [
        {
          "internalType": "address",
          "name": "account",
          "type": "address"
        }
      ],
      "name": "OwnableUnauthorizedAccount",
      "type": "error"
    },
    {
      "anonymous": false,
      "inputs": [
        {
          "indexed": false,
          "internalType": "string",
          "name": "id",
          "type": "string"
        },
        {
          "indexed": false,
          "internalType": "uint256",
          "name": "timestamp",
          "type": "uint256"
        },
        {
          "indexed": false,
          "internalType": "string",
          "name": "details",
          "type": "string"
        }
      ],
      "name": "ColdChainViolation",
      "type": "event"
    },
    {
      "anonymous": false,
      "inputs": [
        {
          "indexed": false,
          "internalType": "string",
          "name": "id",
          "type": "string"
        },
        {
          "indexed": false,
          "internalType": "string",
          "name": "productId",
          "type": "string"
        },
        {
          "indexed": false,
          "internalType": "string",
          "name": "batchId",
          "type": "string"
        },
        {
          "indexed": false,
          "internalType": "address",
          "name": "manufacturer",
          "type": "address"
        }
      ],
      "name": "DrugManufactured",
      "type": "event"
    },
    {
      "anonymous": false,
      "inputs": [
        {
          "indexed": false,
          "internalType": "string",
          "name": "id",
          "type": "string"
        },
        {
          "indexed": false,
          "internalType": "address",
          "name": "from",
          "type": "address"
        },
        {
          "indexed": false,
          "internalType": "address",
          "name": "to",
          "type": "address"
        },
        {
          "indexed": false,
          "internalType": "string",
          "name": "newStatus",
          "type": "string"
        }
      ],
      "name": "DrugTransferred",
      "type": "event"
    },
    {
      "anonymous": false,
      "inputs": [
        {
          "indexed": true,
          "internalType": "address",
          "name": "previousOwner",
          "type": "address"
        },
        {
          "indexed": true,
          "internalType": "address",
          "name": "newOwner",
          "type": "address"
        }
      ],
      "name": "OwnershipTransferred",
      "type": "event"
    },
    {
      "anonymous": false,
      "inputs": [
        {
          "indexed": true,
          "internalType": "bytes32",
          "name": "role",
          "type": "bytes32"
        },
        {
          "indexed": true,
          "internalType": "bytes32",
          "name": "previousAdminRole",
          "type": "bytes32"
        },
        {
          "indexed": true,
          "internalType": "bytes32",
          "name": "newAdminRole",
          "type": "bytes32"
        }
      ],
      "name": "RoleAdminChanged",
      "type": "event"
    },
    {
      "anonymous": false,
      "inputs": [
        {
          "indexed": true,
          "internalType": "bytes32",
          "name": "role",
          "type": "bytes32"
        },
        {
          "indexed": true,
          "internalType": "address",
          "name": "account",
          "type": "address"
        },
        {
          "indexed": true,
          "internalType": "address",
          "name": "sender",
          "type": "address"
        }
      ],
      "name": "RoleGranted",
      "type": "event"
    },
    {
      "anonymous": false,
      "inputs": [
        {
          "indexed": true,
          "internalType": "bytes32",
          "name": "role",
          "type": "bytes32"
        },
        {
          "indexed": true,
          "internalType": "address",
          "name": "account",
          "type": "address"
        },
        {
          "indexed": true,
          "internalType": "address",
          "name": "sender",
          "type": "address"
        }
      ],
      "name": "RoleRevoked",
      "type": "event"
    },
    {
      "inputs": [],
      "name": "DEFAULT_ADMIN_ROLE",
      "outputs": [
        {
          "internalType": "bytes32",
          "name": "",
          "type": "bytes32"
        }
      ],
      "stateMutability": "view",
      "type": "function",
      "constant": true
    },
    {
      "inputs": [],
      "name": "DISTRIBUTOR_ROLE",
      "outputs": [
        {
          "internalType": "bytes32",
          "name": "",
          "type": "bytes32"
        }
      ],
      "stateMutability": "view",
      "type": "function",
      "constant": true
    },
    {
      "inputs": [],
      "name": "MANUFACTURER_ROLE",
      "outputs": [
        {
          "internalType": "bytes32",
          "name": "",
          "type": "bytes32"
        }
      ],
      "stateMutability": "view",
      "type": "function",
      "constant": true
    },
    {
      "inputs": [],
      "name": "PHARMACY_ROLE",
      "outputs": [
        {
          "internalType": "bytes32",
          "name": "",
          "type": "bytes32"
        }
      ],
      "stateMutability": "view",
      "type": "function",
      "constant": true
    },
    {
      "inputs": [],
      "name": "REGULATOR_ROLE",
      "outputs": [
        {
          "internalType": "bytes32",
          "name": "",
          "type": "bytes32"
        }
      ],
      "stateMutability": "view",
      "type": "function",
      "constant": true
    },
    {
      "inputs": [
        {
          "internalType": "string",
          "name": "",
          "type": "string"
        }
      ],
      "name": "drugs",
      "outputs": [
        {
          "internalType": "string",
          "name": "id",
          "type": "string"
        },
        {
          "internalType": "string",
          "name": "productId",
          "type": "string"
        },
        {
          "internalType": "string",
          "name": "batchId",
          "type": "string"
        },
        {
          "internalType": "address",
          "name": "manufacturer",
          "type": "address"
        },
        {
          "internalType": "address",
          "name": "currentOwner",
          "type": "address"
        },
        {
          "internalType": "string",
          "name": "status",
          "type": "string"
        },
        {
          "internalType": "uint256",
          "name": "lastUpdateTimestamp",
          "type": "uint256"
        }
      ],
      "stateMutability": "view",
      "type": "function",
      "constant": true
    },
    {
      "inputs": [
        {
          "internalType": "bytes32",
          "name": "role",
          "type": "bytes32"
        }
      ],
      "name": "getRoleAdmin",
      "outputs": [
        {
          "internalType": "bytes32",
          "name": "",
          "type": "bytes32"
        }
      ],
      "stateMutability": "view",
      "type": "function",
      "constant": true
    },
    {
      "inputs": [],
      "name": "owner",
      "outputs": [
        {
          "internalType": "address",
          "name": "",
          "type": "address"
        }
      ],
      "stateMutability": "view",
      "type": "function",
      "constant": true
    },
    {
      "inputs": [],
      "name": "renounceOwnership",
      "outputs": [],
      "stateMutability": "nonpayable",
      "type": "function"
    },
    {
      "inputs": [
        {
          "internalType": "bytes4",
          "name": "interfaceId",
          "type": "bytes4"
        }
      ],
      "name": "supportsInterface",
      "outputs": [
        {
          "internalType": "bool",
          "name": "",
          "type": "bool"
        }
      ],
      "stateMutability": "view",
      "type": "function",
      "constant": true
    },
    {
      "inputs": [
        {
          "internalType": "address",
          "name": "newOwner",
          "type": "address"
        }
      ],
      "name": "transferOwnership",
      "outputs": [],
      "stateMutability": "nonpayable",
      "type": "function"
    },
    {
      "inputs": [
        {
          "internalType": "bytes32",
          "name": "role",
          "type": "bytes32"
        },
        {
          "internalType": "address",
          "name": "account",
          "type": "address"
        }
      ],
      "name": "grantRole",
      "outputs": [],
      "stateMutability": "nonpayable",
      "type": "function"
    },
    {
      "inputs": [
        {
          "internalType": "bytes32",
          "name": "role",
          "type": "bytes32"
        },
        {
          "internalType": "address",
          "name": "account",
          "type": "address"
        }
      ],
      "name": "revokeRole",
      "outputs": [],
      "stateMutability": "nonpayable",
      "type": "function"
    },
    {
      "inputs": [
        {
          "internalType": "bytes32",
          "name": "role",
          "type": "bytes32"
        },
        {
          "internalType": "address",
          "name": "account",
          "type": "address"
        }
      ],
      "name": "renounceRole",
      "outputs": [],
      "stateMutability": "nonpayable",
      "type": "function"
    },
    {
      "inputs": [
        {
          "internalType": "bytes32",
          "name": "role",
          "type": "bytes32"
        },
        {
          "internalType": "address",
          "name": "account",
          "type": "address"
        }
      ],
      "name": "hasRole",
      "outputs": [
        {
          "internalType": "bool",
          "name": "",
          "type": "bool"
        }
      ],
      "stateMutability": "view",
      "type": "function",
      "constant": true
    },
    {
      "inputs": [
        {
          "internalType": "string",
          "name": "_id",
          "type": "string"
        },
        {
          "internalType": "string",
          "name": "_productId",
          "type": "string"
        },
        {
          "internalType": "string",
          "name": "_batchId",
          "type": "string"
        }
      ],
      "name": "manufactureDrug",
      "outputs": [],
      "stateMutability": "nonpayable",
      "type": "function"
    },
    {
      "inputs": [
        {
          "internalType": "string",
          "name": "_id",
          "type": "string"
        },
        {
          "internalType": "address",
          "name": "_newOwner",
          "type": "address"
        },
        {
          "internalType": "string",
          "name": "_newStatus",
          "type": "string"
        }
      ],
      "name": "transferDrug",
      "outputs": [],
      "stateMutability": "nonpayable",
      "type": "function"
    },
    {
      "inputs": [
        {
          "internalType": "string",
          "name": "_id",
          "type": "string"
        },
        {
          "internalType": "string",
          "name": "_details",
          "type": "string"
        }
      ],
      "name": "logColdChainViolation",
      "outputs": [],
      "stateMutability": "nonpayable",
      "type": "function"
    },
    {
      "inputs": [
        {
          "internalType": "string",
          "name": "_id",
          "type": "string"
        }
      ],
      "name": "verifyDrug",
      "outputs": [
        {
          "internalType": "string",
          "name": "productId",
          "type": "string"
        },
        {
          "internalType": "string",
          "name": "batchId",
          "type": "string"
        },
        {
          "internalType": "address",
          "name": "manufacturer",
          "type": "address"
        },
        {
          "internalType": "address",
          "name": "currentOwner",
          "type": "address"
        },
        {
          "internalType": "string",
          "name": "status",
          "type": "string"
        },
        {
          "internalType": "string[]",
          "name": "history",
          "type": "string[]"
        }
      ],
      "stateMutability": "view",
      "type": "function",
      "constant": true
    }
  ],
  "bytecode": "0x608060405234801561000f575f80fd5b50335f73ffffffffffffffffffffffffffffffffffffffff168173ffffffffffffffffffffffffffffffffffffffff1603610081575f6040517f1e4fbdf70000000000000000000000000000000000000000000000000000000081526004016100789190610385565b60405180910390fd5b6100908161010b60201b60201c565b506100a35f801b336101ce60201b60201c565b506100d47feefb95e842a3287179d933b4460be539a1d5af11aa8b325bb45c5c8dc92de4ed336101ce60201b60201c565b506101057f20b5f7ac978e5d6199de06401411960dfa81d2f762655f6206bdc61d46fc19e6336101ce60201b60201c565b5061039e565b5f60015f9054906101000a900473ffffffffffffffffffffffffffffffffffffffff1690508160015f6101000a81548173ffffffffffffffffffffffffffffffffffffffff021916908373ffffffffffffffffffffffffffffffffffffffff1602179055508173ffffffffffffffffffffffffffffffffffffffff168173ffffffffffffffffffffffffffffffffffffffff167f8be0079c531659141344cd1fd0a4f28419497f9722a3daafe3b4186f6b6457e060405160405180910390a35050565b5f6101df83836102c360201b60201c565b6102b95760015f808581526020019081526020015f205f015f8473ffffffffffffffffffffffffffffffffffffffff1673ffffffffffffffffffffffffffffffffffffffff1681526020019081526020015f205f6101000a81548160ff0219169083151502179055506102566102dc60201b60201c565b73ffffffffffffffffffffffffffffffffffffffff168273ffffffffffffffffffffffffffffffffffffffff16847f2f8788117e7eff1d82e926ec794901d17c78024a50270940304540a733656f0d60405160405180910390a4600190506102bd565b5f90505b92915050565b5f6102d483836102e360201b60201c565b905092915050565b5f33905090565b5f805f8481526020019081526020015f205f015f8373ffffffffffffffffffffffffffffffffffffffff1673ffffffffffffffffffffffffffffffffffffffff1681526020019081526020015f205f9054906101000a900460ff16905092915050565b5f73ffffffffffffffffffffffffffffffffffffffff82169050919050565b5f61036f82610346565b9050919050565b61037f81610365565b82525050565b5f6020820190506103985f830184610376565b92915050565b6131c0806103ab5f395ff3fe608060405234801561000f575f80fd5b506004361061011f575f3560e01c80638da5cb5b116100ab578063d547741f1161006f578063d547741f14610310578063d5ccb9401461032c578063f0bd87cc14610348578063f0c58ea714610366578063f2fde38b146103845761011f565b80638da5cb5b1461025057806391d148541461026e578063965288b01461029e578063a217fddf146102bc578063b009493d146102da5761011f565b806336568abe116100f257806336568abe146101bd5780633b7b0a74146101d95780635a05973d1461020e578063715018a61461022a578063722b743d146102345761011f565b806301ffc9a714610123578063144bf58914610153578063248a9ca3146101715780632f2ff15d146101a1575b5f80fd5b61013d60048036038101906101389190611f31565b6103a0565b60405161014a9190611f76565b60405180910390f35b61015b610419565b6040516101689190611fa7565b60405180910390f35b61018b60048036038101906101869190611fea565b61043d565b6040516101989190611fa7565b60405180910390f35b6101bb60048036038101906101b6919061206f565b610459565b005b6101d760048036038101906101d2919061206f565b610474565b005b6101f360048036038101906101ee91906121e9565b610482565b604051610205969594939291906123a2565b60405180910390f35b6102286004803603810190610223919061241d565b61087f565b005b610232610bee565b005b61024e600480360381019061024991906124c1565b610c01565b005b610258610d5d565b6040516102659190612537565b60405180910390f35b6102886004803603810190610283919061206f565b610d85565b6040516102959190611f76565b60405180910390f35b6102a6610d98565b6040516102b39190611fa7565b60405180910390f35b6102c4610dbc565b6040516102d19190611fa7565b60405180910390f35b6102f460048036038101906102ef91906121e9565b610dc2565b6040516103079796959493929190612568565b60405180910390f35b61032a6004803603810190610325919061206f565b61106e565b005b610346600480360381019061034191906125f1565b611089565b005b6103506113de565b60405161035d9190611fa7565b60405180910390f35b61036e611402565b60405161037b9190611fa7565b60405180910390f35b61039e60048036038101906103999190612679565b611426565b005b5f7f7965db0b000000000000000000000000000000000000000000000000000000007bffffffffffffffffffffffffffffffffffffffffffffffffffffffff1916827bffffffffffffffffffffffffffffffffffffffffffffffffffffffff191614806104125750610411826114aa565b5b9050919050565b7f20b5f7ac978e5d6199de06401411960dfa81d2f762655f6206bdc61d46fc19e681565b5f805f8381526020019081526020015f20600101549050919050565b5f801b61046581611513565b61046f8383611527565b505050565b61047e8282611549565b5050565b6060805f806060805f60028860405161049b91906126de565b90815260200160405180910390205f0180546104b690612721565b9050116104f8576040517f08c379a00000000000000000000000000000000000000000000000000000000081526004016104ef9061279b565b60405180910390fd5b60028760405161050891906126de565b908152602001604051809103902060010160028860405161052991906126de565b908152602001604051809103902060020160028960405161054a91906126de565b90815260200160405180910390206003015f9054906101000a900473ffffffffffffffffffffffffffffffffffffffff1660028a60405161058b91906126de565b90815260200160405180910390206004015f9054906101000a900473ffffffffffffffffffffffffffffffffffffffff1660028b6040516105cc91906126de565b908152602001604051809103902060050160028c6040516105ed91906126de565b908152602001604051809103902060070185805461060a90612721565b80601f016020809104026020016040519081016040528092919081815260200182805461063690612721565b80156106815780601f1061065857610100808354040283529160200191610681565b820191905f5260205f20905b81548152906001019060200180831161066457829003601f168201915b5050505050955084805461069490612721565b80601f01602080910402602001604051908101604052809291908181526020018280546106c090612721565b801561070b5780601f106106e25761010080835404028352916020019161070b565b820191905f5260205f20905b8154815290600101906020018083116106ee57829003601f168201915b5050505050945081805461071e90612721565b80601f016020809104026020016040519081016040528092919081815260200182805461074a90612721565b80156107955780601f1061076c57610100808354040283529160200191610795565b820191905f5260205f20905b81548152906001019060200180831161077857829003601f168201915b5050505050915080805480602002602001604051908101604052809291908181526020015f905b82821015610864578382905f5260205f200180546107d990612721565b80601f016020809104026020016040519081016040528092919081815260200182805461080590612721565b80156108505780601f1061082757610100808354040283529160200191610850565b820191905f5260205f20905b81548152906001019060200180831161083357829003601f168201915b5050505050815260200190600101906107bc565b50505050905095509550955095509550955091939550919395565b7feefb95e842a3287179d933b4460be539a1d5af11aa8b325bb45c5c8dc92de4ed6108a981611513565b5f6002856040516108ba91906126de565b90815260200160405180910390205f0180546108d590612721565b905014610917576040517f08c379a000000000000000000000000000000000000000000000000000000000815260040161090e90612829565b60405180910390fd5b6040518061010001604052808581526020018481526020018381526020013373ffffffffffffffffffffffffffffffffffffffff1681526020013373ffffffffffffffffffffffffffffffffffffffff1681526020016040518060400160405280600c81526020017f4d414e554641435455524544000000000000000000000000000000000000000081525081526020014281526020015f67ffffffffffffffff8111156109c8576109c76120c5565b5b6040519080825280602002602001820160405280156109fb57816020015b60608152602001906001900390816109e65790505b50815250600285604051610a0f91906126de565b90815260200160405180910390205f820151815f019081610a3091906129e4565b506020820151816001019081610a4691906129e4565b506040820151816002019081610a5c91906129e4565b506060820151816003015f6101000a81548173ffffffffffffffffffffffffffffffffffffffff021916908373ffffffffffffffffffffffffffffffffffffffff1602179055506080820151816004015f6101000a81548173ffffffffffffffffffffffffffffffffffffffff021916908373ffffffffffffffffffffffffffffffffffffffff16021790555060a0820151816005019081610afe91906129e4565b5060c0820151816006015560e0820151816007019080519060200190610b25929190611df9565b50905050600284604051610b3991906126de565b9081526020016040518091039020600701610b53336115c4565b610b5c426118a7565b604051602001610b6d929190612b47565b604051602081830303815290604052908060018154018082558091505060019003905f5260205f20015f909190919091509081610baa91906129e4565b507f9895ccb07b2d9d1127dc80aedcc8f102de79a9af92d354c80e99750cf3b7537284848433604051610be09493929190612b80565b60405180910390a150505050565b610bf6611a00565b610bff5f611a87565b565b7f20b5f7ac978e5d6199de06401411960dfa81d2f762655f6206bdc61d46fc19e6610c2b81611513565b5f600284604051610c3c91906126de565b90815260200160405180910390205f018054610c5790612721565b905011610c99576040517f08c379a0000000000000000000000000000000000000000000000000000000008152600401610c909061279b565b60405180910390fd5b600283604051610ca991906126de565b908152602001604051809103902060070182610cc4336115c4565b610ccd426118a7565b604051602001610cdf93929190612c6c565b604051602081830303815290604052908060018154018082558091505060019003905f5260205f20015f909190919091509081610d1c91906129e4565b507fa4b5f4d6d86454a9f5a5bfc80cd041bed01c182b643da02c6c0cd6cc12e82399834284604051610d5093929190612cbd565b60405180910390a1505050565b5f60015f9054906101000a900473ffffffffffffffffffffffffffffffffffffffff16905090565b5f610d908383611b4a565b905092915050565b7feefb95e842a3287179d933b4460be539a1d5af11aa8b325bb45c5c8dc92de4ed81565b5f801b81565b6002818051602081018201805184825260208301602085012081835280955050505050505f91509050805f018054610df990612721565b80601f0160208091040260200160405190810160405280929190818152602001828054610e2590612721565b8015610e705780601f10610e4757610100808354040283529160200191610e70565b820191905f5260205f20905b815481529060010190602001808311610e5357829003601f168201915b505050505090806001018054610e8590612721565b80601f0160208091040260200160405190810160405280929190818152602001828054610eb190612721565b8015610efc5780601f10610ed357610100808354040283529160200191610efc565b820191905f5260205f20905b815481529060010190602001808311610edf57829003601f168201915b505050505090806002018054610f1190612721565b80601f0160208091040260200160405190810160405280929190818152602001828054610f3d90612721565b8015610f885780601f10610f5f57610100808354040283529160200191610f88565b820191905f5260205f20905b815481529060010190602001808311610f6b57829003601f168201915b505050505090806003015f9054906101000a900473ffffffffffffffffffffffffffffffffffffffff1690806004015f9054906101000a900473ffffffffffffffffffffffffffffffffffffffff1690806005018054610fe790612721565b80601f016020809104026020016040519081016040528092919081815260200182805461101390612721565b801561105e5780601f106110355761010080835404028352916020019161105e565b820191905f5260205f20905b81548152906001019060200180831161104157829003601f168201915b5050505050908060060154905087565b5f801b61107a81611513565b6110848383611bad565b505050565b825f60028260405161109b91906126de565b90815260200160405180910390205f0180546110b690612721565b9050116110f8576040517f08c379a00000000000000000000000000000000000000000000000000000000081526004016110ef90612d4a565b60405180910390fd5b60028160405161110891906126de565b90815260200160405180910390206004015f9054906101000a900473ffffffffffffffffffffffffffffffffffffffff1673ffffffffffffffffffffffffffffffffffffffff163373ffffffffffffffffffffffffffffffffffffffff16146111a6576040517f08c379a000000000000000000000000000000000000000000000000000000000815260040161119d90612dd8565b60405180910390fd5b5f6002856040516111b791906126de565b90815260200160405180910390205f0180546111d290612721565b905011611214576040517f08c379a000000000000000000000000000000000000000000000000000000000815260040161120b9061279b565b60405180910390fd5b5f60028560405161122591906126de565b90815260200160405180910390206004015f9054906101000a900473ffffffffffffffffffffffffffffffffffffffff1690508360028660405161126991906126de565b90815260200160405180910390206004015f6101000a81548173ffffffffffffffffffffffffffffffffffffffff021916908373ffffffffffffffffffffffffffffffffffffffff160217905550826002866040516112c891906126de565b908152602001604051809103902060050190816112e591906129e4565b50426002866040516112f791906126de565b90815260200160405180910390206006018190555060028560405161131c91906126de565b9081526020016040518091039020600701611336826115c4565b61133f866115c4565b85611349426118a7565b60405160200161135c9493929190612ed4565b604051602081830303815290604052908060018154018082558091505060019003905f5260205f20015f90919091909150908161139991906129e4565b507f772cf988c6c8639e7b31e1e4a5786c5eb66313b250ccfb5e941e68626a64b30e858286866040516113cf9493929190612f3d565b60405180910390a15050505050565b7ffbd454f36a7e1a388bd6fc3ab10d434aa4578f811acbbcf33afb1c697486313c81565b7f2f3a5455f35aeca177ac653592f277fbe2fbafef01081a2030451bb2fb41c91d81565b61142e611a00565b5f73ffffffffffffffffffffffffffffffffffffffff168173ffffffffffffffffffffffffffffffffffffffff160361149e575f6040517f1e4fbdf70000000000000000000000000000000000000000000000000000000081526004016114959190612537565b60405180910390fd5b6114a781611a87565b50565b5f7f01ffc9a7000000000000000000000000000000000000000000000000000000007bffffffffffffffffffffffffffffffffffffffffffffffffffffffff1916827bffffffffffffffffffffffffffffffffffffffffffffffffffffffff1916149050919050565b6115248161151f611bcf565b611bd6565b50565b6115308261043d565b61153981611513565b6115438383611c27565b50505050565b611551611bcf565b73ffffffffffffffffffffffffffffffffffffffff168173ffffffffffffffffffffffffffffffffffffffff16146115b5576040517f6697b23200000000000000000000000000000000000000000000000000000000815260040160405180910390fd5b6115bf8282611d10565b505050565b60605f8273ffffffffffffffffffffffffffffffffffffffff165f1b90505f6040518060400160405280601081526020017f303132333435363738396162636465660000000000000000000000000000000081525090505f602a67ffffffffffffffff811115611637576116366120c5565b5b6040519080825280601f01601f1916602001820160405280156116695781602001600182028036833780820191505090505b5090507f3000000000000000000000000000000000000000000000000000000000000000815f815181106116a05761169f612f8e565b5b60200101907effffffffffffffffffffffffffffffffffffffffffffffffffffffffffffff191690815f1a9053507f78000000000000000000000000000000000000000000000000000000000000008160018151811061170357611702612f8e565b5b60200101907effffffffffffffffffffffffffffffffffffffffffffffffffffffffffffff191690815f1a9053505f5b601481101561189b5782600485836020811061175257611751612f8e565b5b1a60f81b7effffffffffffffffffffffffffffffffffffffffffffffffffffffffffffff1916901c60f81c60ff168151811061179157611790612f8e565b5b602001015160f81c60f81b826002836117aa9190612fe8565b60026117b69190613029565b815181106117c7576117c6612f8e565b5b60200101907effffffffffffffffffffffffffffffffffffffffffffffffffffffffffffff191690815f1a90535082600f60f81b85836020811061180e5761180d612f8e565b5b1a60f81b1660f81c60ff168151811061182a57611829612f8e565b5b602001015160f81c60f81b826002836118439190612fe8565b600361184f9190613029565b815181106118605761185f612f8e565b5b60200101907effffffffffffffffffffffffffffffffffffffffffffffffffffffffffffff191690815f1a9053508080600101915050611733565b50809350505050919050565b60605f82036118ed576040518060400160405280600181526020017f300000000000000000000000000000000000000000000000000000000000000081525090506119fb565b5f8290505f5b5f821461191c5780806119059061305c565b915050600a8261191591906130d0565b91506118f3565b5f8167ffffffffffffffff811115611937576119366120c5565b5b6040519080825280601f01601f1916602001820160405280156119695781602001600182028036833780820191505090505b5090505b5f85146119f4576001826119819190613100565b9150600a856119909190613133565b603061199c9190613029565b60f81b8183815181106119b2576119b1612f8e565b5b60200101907effffffffffffffffffffffffffffffffffffffffffffffffffffffffffffff191690815f1a905350600a856119ed91906130d0565b945061196d565b8093505050505b919050565b611a08611bcf565b73ffffffffffffffffffffffffffffffffffffffff16611a26610d5d565b73ffffffffffffffffffffffffffffffffffffffff1614611a8557611a49611bcf565b6040517f118cdaa7000000000000000000000000000000000000000000000000000000008152600401611a7c9190612537565b60405180910390fd5b565b5f60015f9054906101000a900473ffffffffffffffffffffffffffffffffffffffff1690508160015f6101000a81548173ffffffffffffffffffffffffffffffffffffffff021916908373ffffffffffffffffffffffffffffffffffffffff1602179055508173ffffffffffffffffffffffffffffffffffffffff168173ffffffffffffffffffffffffffffffffffffffff167f8be0079c531659141344cd1fd0a4f28419497f9722a3daafe3b4186f6b6457e060405160405180910390a35050565b5f805f8481526020019081526020015f205f015f8373ffffffffffffffffffffffffffffffffffffffff1673ffffffffffffffffffffffffffffffffffffffff1681526020019081526020015f205f9054906101000a900460ff16905092915050565b611bb68261043d565b611bbf81611513565b611bc98383611d10565b50505050565b5f33905090565b611be08282610d85565b611c235780826040517fe2517d3f000000000000000000000000000000000000000000000000000000008152600401611c1a929190613163565b60405180910390fd5b5050565b5f611c328383610d85565b611d065760015f808581526020019081526020015f205f015f8473ffffffffffffffffffffffffffffffffffffffff1673ffffffffffffffffffffffffffffffffffffffff1681526020019081526020015f205f6101000a81548160ff021916908315150217905550611ca3611bcf565b73ffffffffffffffffffffffffffffffffffffffff168273ffffffffffffffffffffffffffffffffffffffff16847f2f8788117e7eff1d82e926ec794901d17c78024a50270940304540a733656f0d60405160405180910390a460019050611d0a565b5f90505b92915050565b5f611d1b8383610d85565b15611def575f805f8581526020019081526020015f205f015f8473ffffffffffffffffffffffffffffffffffffffff1673ffffffffffffffffffffffffffffffffffffffff1681526020019081526020015f205f6101000a81548160ff021916908315150217905550611d8c611bcf565b73ffffffffffffffffffffffffffffffffffffffff168273ffffffffffffffffffffffffffffffffffffffff16847ff6391f5c32d9c69d2a47ea670b442974b53935d1edc7fd64eb21e047a839171b60405160405180910390a460019050611df3565b5f90505b92915050565b828054828255905f5260205f20908101928215611e3f579160200282015b82811115611e3e578251829081611e2e91906129e4565b5091602001919060010190611e17565b5b509050611e4c9190611e50565b5090565b5b80821115611e6f575f8181611e669190611e73565b50600101611e51565b5090565b508054611e7f90612721565b5f825580601f10611e905750611ead565b601f0160209004905f5260205f2090810190611eac9190611eb0565b5b50565b5b80821115611ec7575f815f905550600101611eb1565b5090565b5f604051905090565b5f80fd5b5f80fd5b5f7fffffffff0000000000000000000000000000000000000000000000000000000082169050919050565b611f1081611edc565b8114611f1a575f80fd5b50565b5f81359050611f2b81611f07565b92915050565b5f60208284031215611f4657611f45611ed4565b5b5f611f5384828501611f1d565b91505092915050565b5f8115159050919050565b611f7081611f5c565b82525050565b5f602082019050611f895f830184611f67565b92915050565b5f819050919050565b611fa181611f8f565b82525050565b5f602082019050611fba5f830184611f98565b92915050565b611fc981611f8f565b8114611fd3575f80fd5b50565b5f81359050611fe481611fc0565b92915050565b5f60208284031215611fff57611ffe611ed4565b5b5f61200c84828501611fd6565b91505092915050565b5f73ffffffffffffffffffffffffffffffffffffffff82169050919050565b5f61203e82612015565b9050919050565b61204e81612034565b8114612058575f80fd5b50565b5f8135905061206981612045565b92915050565b5f806040838503121561208557612084611ed4565b5b5f61209285828601611fd6565b92505060206120a38582860161205b565b9150509250929050565b5f80fd5b5f80fd5b5f601f19601f8301169050919050565b7f4e487b71000000000000000000000000000000000000000000000000000000005f52604160045260245ffd5b6120fb826120b5565b810181811067ffffffffffffffff8211171561211a576121196120c5565b5b80604052505050565b5f61212c611ecb565b905061213882826120f2565b919050565b5f67ffffffffffffffff821115612157576121566120c5565b5b612160826120b5565b9050602081019050919050565b828183375f83830152505050565b5f61218d6121888461213d565b612123565b9050828152602081018484840111156121a9576121a86120b1565b5b6121b484828561216d565b509392505050565b5f82601f8301126121d0576121cf6120ad565b5b81356121e084826020860161217b565b91505092915050565b5f602082840312156121fe576121fd611ed4565b5b5f82013567ffffffffffffffff81111561221b5761221a611ed8565b5b612227848285016121bc565b91505092915050565b5f81519050919050565b5f82825260208201905092915050565b8281835e5f83830152505050565b5f61226282612230565b61226c818561223a565b935061227c81856020860161224a565b612285816120b5565b840191505092915050565b61229981612034565b82525050565b5f81519050919050565b5f82825260208201905092915050565b5f819050602082019050919050565b5f82825260208201905092915050565b5f6122e282612230565b6122ec81856122c8565b93506122fc81856020860161224a565b612305816120b5565b840191505092915050565b5f61231b83836122d8565b905092915050565b5f602082019050919050565b5f6123398261229f565b61234381856122a9565b935083602082028501612355856122b9565b805f5b8581101561239057848403895281516123718582612310565b945061237c83612323565b925060208a01995050600181019050612358565b50829750879550505050505092915050565b5f60c0820190508181035f8301526123ba8189612258565b905081810360208301526123ce8188612258565b90506123dd6040830187612290565b6123ea6060830186612290565b81810360808301526123fc8185612258565b905081810360a0830152612410818461232f565b9050979650505050505050565b5f805f6060848603121561243457612433611ed4565b5b5f84013567ffffffffffffffff81111561245157612450611ed8565b5b61245d868287016121bc565b935050602084013567ffffffffffffffff81111561247e5761247d611ed8565b5b61248a868287016121bc565b925050604084013567ffffffffffffffff8111156124ab576124aa611ed8565b5b6124b7868287016121bc565b9150509250925092565b5f80604083850312156124d7576124d6611ed4565b5b5f83013567ffffffffffffffff8111156124f4576124f3611ed8565b5b612500858286016121bc565b925050602083013567ffffffffffffffff81111561252157612520611ed8565b5b61252d858286016121bc565b9150509250929050565b5f60208201905061254a5f830184612290565b92915050565b5f819050919050565b61256281612550565b82525050565b5f60e0820190508181035f830152612580818a612258565b905081810360208301526125948189612258565b905081810360408301526125a88188612258565b90506125b76060830187612290565b6125c46080830186612290565b81810360a08301526125d68185612258565b90506125e560c0830184612559565b98975050505050505050565b5f805f6060848603121561260857612607611ed4565b5b5f84013567ffffffffffffffff81111561262557612624611ed8565b5b612631868287016121bc565b93505060206126428682870161205b565b925050604084013567ffffffffffffffff81111561266357612662611ed8565b5b61266f868287016121bc565b9150509250925092565b5f6020828403121561268e5761268d611ed4565b5b5f61269b8482850161205b565b91505092915050565b5f81905092915050565b5f6126b882612230565b6126c281856126a4565b93506126d281856020860161224a565b80840191505092915050565b5f6126e982846126ae565b915081905092915050565b7f4e487b71000000000000000000000000000000000000000000000000000000005f52602260045260245ffd5b5f600282049050600182168061273857607f821691505b60208210810361274b5761274a6126f4565b5b50919050565b7f44727567206e6f7420666f756e642e00000000000000000000000000000000005f82015250565b5f612785600f8361223a565b915061279082612751565b602082019050919050565b5f6020820190508181035f8301526127b281612779565b9050919050565b7f447275672077697468207468697320494420616c7265616479206578697374735f8201527f2e00000000000000000000000000000000000000000000000000000000000000602082015250565b5f61281360218361223a565b915061281e826127b9565b604082019050919050565b5f6020820190508181035f83015261284081612807565b9050919050565b5f819050815f5260205f209050919050565b5f6020601f8301049050919050565b5f82821b905092915050565b5f600883026128a37fffffffffffffffffffffffffffffffffffffffffffffffffffffffffffffffff82612868565b6128ad8683612868565b95508019841693508086168417925050509392505050565b5f819050919050565b5f6128e86128e36128de84612550565b6128c5565b612550565b9050919050565b5f819050919050565b612901836128ce565b61291561290d826128ef565b848454612874565b825550505050565b5f90565b61292961291d565b6129348184846128f8565b505050565b5b818110156129575761294c5f82612921565b60018101905061293a565b5050565b601f82111561299c5761296d81612847565b61297684612859565b81016020851015612985578190505b61299961299185612859565b830182612939565b50505b505050565b5f82821c905092915050565b5f6129bc5f19846008026129a1565b1980831691505092915050565b5f6129d483836129ad565b9150826002028217905092915050565b6129ed82612230565b67ffffffffffffffff811115612a0657612a056120c5565b5b612a108254612721565b612a1b82828561295b565b5f60209050601f831160018114612a4c575f8415612a3a578287015190505b612a4485826129c9565b865550612aab565b601f198416612a5a86612847565b5f5b82811015612a8157848901518255600182019150602085019450602081019050612a5c565b86831015612a9e5784890151612a9a601f8916826129ad565b8355505b6001600288020188555050505b505050505050565b7f4d414e55464143545552454420627920000000000000000000000000000000005f82015250565b5f612ae76010836126a4565b9150612af282612ab3565b601082019050919050565b7f20617420000000000000000000000000000000000000000000000000000000005f82015250565b5f612b316004836126a4565b9150612b3c82612afd565b600482019050919050565b5f612b5182612adb565b9150612b5d82856126ae565b9150612b6882612b25565b9150612b7482846126ae565b91508190509392505050565b5f6080820190508181035f830152612b988187612258565b90508181036020830152612bac8186612258565b90508181036040830152612bc08185612258565b9050612bcf6060830184612290565b95945050505050565b7f434f4c445f434841494e5f56494f4c4154494f4e3a20000000000000000000005f82015250565b5f612c0c6016836126a4565b9150612c1782612bd8565b601682019050919050565b7f20627920000000000000000000000000000000000000000000000000000000005f82015250565b5f612c566004836126a4565b9150612c6182612c22565b600482019050919050565b5f612c7682612c00565b9150612c8282866126ae565b9150612c8d82612c4a565b9150612c9982856126ae565b9150612ca482612b25565b9150612cb082846126ae565b9150819050949350505050565b5f6060820190508181035f830152612cd58186612258565b9050612ce46020830185612559565b8181036040830152612cf68184612258565b9050949350505050565b7f44727567206e6f7420666f756e6420666f72206f776e657220636865636b2e005f82015250565b5f612d34601f8361223a565b9150612d3f82612d00565b602082019050919050565b5f6020820190508181035f830152612d6181612d28565b9050919050565b7f4f6e6c79207468652063757272656e74206f776e6572206f66207468652064725f8201527f75672063616e20706572666f726d207468697320616374696f6e2e0000000000602082015250565b5f612dc2603b8361223a565b9150612dcd82612d68565b604082019050919050565b5f6020820190508181035f830152612def81612db6565b9050919050565b7f5452414e534645525245442066726f6d200000000000000000000000000000005f82015250565b5f612e2a6011836126a4565b9150612e3582612df6565b601182019050919050565b7f20746f20000000000000000000000000000000000000000000000000000000005f82015250565b5f612e746004836126a4565b9150612e7f82612e40565b600482019050919050565b7f20617320000000000000000000000000000000000000000000000000000000005f82015250565b5f612ebe6004836126a4565b9150612ec982612e8a565b600482019050919050565b5f612ede82612e1e565b9150612eea82876126ae565b9150612ef582612e68565b9150612f0182866126ae565b9150612f0c82612eb2565b9150612f1882856126ae565b9150612f2382612b25565b9150612f2f82846126ae565b915081905095945050505050565b5f6080820190508181035f830152612f558187612258565b9050612f646020830186612290565b612f716040830185612290565b8181036060830152612f838184612258565b905095945050505050565b7f4e487b71000000000000000000000000000000000000000000000000000000005f52603260045260245ffd5b7f4e487b71000000000000000000000000000000000000000000000000000000005f52601160045260245ffd5b5f612ff282612550565b9150612ffd83612550565b925082820261300b81612550565b9150828204841483151761302257613021612fbb565b5b5092915050565b5f61303382612550565b915061303e83612550565b925082820190508082111561305657613055612fbb565b5b92915050565b5f61306682612550565b91507fffffffffffffffffffffffffffffffffffffffffffffffffffffffffffffffff820361309857613097612fbb565b5b600182019050919050565b7f4e487b71000000000000000000000000000000000000000000000000000000005f52601260045260245ffd5b5f6130da82612550565b91506130e583612550565b9250826130f5576130f46130a3565b5b828204905092915050565b5f61310a82612550565b915061311583612550565b925082820390508181111561312d5761312c612fbb565b5b92915050565b5f61313d82612550565b915061314883612550565b925082613158576131576130a3565b5b828206905092915050565b5f6040820190506131765f830185612290565b6131836020830184611f98565b939250505056fea2646970667358221220df8e3d308019cde360bd015c6317d721a6e387f40d956a8054ad972d8dd7a73d64736f6c634300081a0033",
  "immutableReferences": {},
  "source": "// SPDX-License-Identifier: MIT\r\npragma solidity ^0.8.20; // Ensure this is 0.8.20 or higher\r\n\r\nimport \"@openzeppelin/contracts/access/AccessControl.sol\";\r\nimport \"@openzeppelin/contracts/access/Ownable.sol\";\r\n\r\ncontract DrugTracking is AccessControl, Ownable {\r\n    bytes32 public constant MANUFACTURER_ROLE = keccak256(\"MANUFACTURER_ROLE\");\r\n    bytes32 public constant DISTRIBUTOR_ROLE = keccak256(\"DISTRIBUTOR_ROLE\");\r\n    bytes32 public constant PHARMACY_ROLE = keccak256(\"PHARMACY_ROLE\");\r\n    bytes32 public constant REGULATOR_ROLE = keccak256(\"REGULATOR_ROLE\");\r\n\r\n    struct Drug {\r\n        string id;\r\n        string productId;\r\n        string batchId;\r\n        address manufacturer;\r\n        address currentOwner;\r\n        string status;\r\n        uint256 lastUpdateTimestamp;\r\n        string[] history;\r\n    }\r\n\r\n    mapping(string => Drug) public drugs;\r\n\r\n    event DrugManufactured(string id, string productId, string batchId, address manufacturer);\r\n    event DrugTransferred(string id, address from, address to, string newStatus);\r\n    event ColdChainViolation(string id, uint256 timestamp, string details);\r\n\r\nconstructor() Ownable(msg.sender) {\r\n    _grantRole(DEFAULT_ADMIN_ROLE, msg.sender);\r\n    _grantRole(MANUFACTURER_ROLE, msg.sender);\r\n    _grantRole(REGULATOR_ROLE, msg.sender);\r\n}\r\n\r\n\r\n    function grantRole(bytes32 role, address account) public virtual override onlyRole(DEFAULT_ADMIN_ROLE) {\r\n        super.grantRole(role, account);\r\n    }\r\n\r\n    function revokeRole(bytes32 role, address account) public virtual override onlyRole(DEFAULT_ADMIN_ROLE) {\r\n        super.revokeRole(role, account);\r\n    }\r\n\r\n    function renounceRole(bytes32 role, address account) public virtual override {\r\n        super.renounceRole(role, account);\r\n    }\r\n\r\n    function hasRole(bytes32 role, address account) public view virtual override returns (bool) {\r\n        return super.hasRole(role, account);\r\n    }\r\n\r\n    modifier onlyCurrentDrugOwner(string memory _drugId) {\r\n        require(bytes(drugs[_drugId].id).length > 0, \"Drug not found for owner check.\");\r\n        require(msg.sender == drugs[_drugId].currentOwner, \"Only the current owner of the drug can perform this action.\");\r\n        _;\r\n    }\r\n\r\n    function manufactureDrug(string memory _id, string memory _productId, string memory _batchId)\r\n        public\r\n        onlyRole(MANUFACTURER_ROLE)\r\n    {\r\n        require(bytes(drugs[_id].id).length == 0, \"Drug with this ID already exists.\");\r\n\r\n        drugs[_id] = Drug({\r\n            id: _id,\r\n            productId: _productId,\r\n            batchId: _batchId,\r\n            manufacturer: msg.sender,\r\n            currentOwner: msg.sender,\r\n            status: \"MANUFACTURED\",\r\n            lastUpdateTimestamp: block.timestamp,\r\n            history: new string[](0)\r\n        });\r\n\r\n        drugs[_id].history.push(string(abi.encodePacked(\"MANUFACTURED by \", addressToString(msg.sender), \" at \", uint256ToString(block.timestamp))));\r\n        emit DrugManufactured(_id, _productId, _batchId, msg.sender);\r\n    }\r\n\r\n    function transferDrug(string memory _id, address _newOwner, string memory _newStatus)\r\n        public\r\n        onlyCurrentDrugOwner(_id)\r\n    {\r\n        require(bytes(drugs[_id].id).length > 0, \"Drug not found.\");\r\n        \r\n\r\n        address oldOwner = drugs[_id].currentOwner;\r\n        drugs[_id].currentOwner = _newOwner;\r\n        drugs[_id].status = _newStatus;\r\n        drugs[_id].lastUpdateTimestamp = block.timestamp;\r\n\r\n        drugs[_id].history.push(string(abi.encodePacked(\"TRANSFERRED from \", addressToString(oldOwner), \" to \", addressToString(_newOwner), \" as \", _newStatus, \" at \", uint256ToString(block.timestamp))));\r\n        emit DrugTransferred(_id, oldOwner, _newOwner, _newStatus);\r\n    }\r\n\r\n    function logColdChainViolation(string memory _id, string memory _details)\r\n        public\r\n        onlyRole(REGULATOR_ROLE)\r\n    {\r\n        require(bytes(drugs[_id].id).length > 0, \"Drug not found.\");\r\n        drugs[_id].history.push(string(abi.encodePacked(\"COLD_CHAIN_VIOLATION: \", _details, \" by \", addressToString(msg.sender), \" at \", uint256ToString(block.timestamp))));\r\n        emit ColdChainViolation(_id, block.timestamp, _details);\r\n    }\r\n\r\n    function verifyDrug(string memory _id)\r\n        public\r\n        view\r\n        returns (string memory productId, string memory batchId, address manufacturer, address currentOwner, string memory status, string[] memory history)\r\n    {\r\n        require(bytes(drugs[_id].id).length > 0, \"Drug not found.\");\r\n        return (\r\n            drugs[_id].productId,\r\n            drugs[_id].batchId,\r\n            drugs[_id].manufacturer,\r\n            drugs[_id].currentOwner,\r\n            drugs[_id].status,\r\n            drugs[_id].history\r\n        );\r\n    }\r\n\r\n    function addressToString(address _address) internal pure returns (string memory) {\r\n        bytes32 value = bytes32(uint256(uint160(_address)));\r\n        bytes memory alphabet = \"0123456789abcdef\";\r\n        bytes memory str = new bytes(42);\r\n        str[0] = '0';\r\n        str[1] = 'x';\r\n        for (uint i = 0; i < 20; i++) {\r\n            str[2+i*2] = alphabet[uint8(value[i] >> 4)];\r\n            str[3+i*2] = alphabet[uint8(value[i] & 0x0f)];\r\n        }\r\n        return string(str);\r\n    }\r\n\r\n    function uint256ToString(uint256 _value) internal pure returns (string memory) {\r\n        if (_value == 0) {\r\n            return \"0\";\r\n        }\r\n        uint256 temp = _value;\r\n        uint256 digits;\r\n        while (temp != 0) {\r\n            digits++;\r\n            temp /= 10;\r\n        }\r\n        bytes memory buffer = new bytes(digits);\r\n        while (_value != 0) {\r\n            digits -= 1;\r\n            buffer[digits] = bytes1(uint8(48 + uint256(_value % 10)));\r\n            _value /= 10;\r\n        }\r\n        return string(buffer);\r\n    }\r\n}\r\n",
  "sourcePath": "D:\\Counterfeit-Medicines-and-Drugs-using-Blockchain\\blockchain\\contracts\\DrugTracking.sol",
  "compiler": {
    "name": "solc",
    "version": "0.8.26+commit.8a97fa7a.Emscripten.clang"
  },
  "schemaVersion": "3.4.16",
  "updatedAt": "2025-07-03T09:27:14.040Z",
  "networkType": "ethereum",
  "devdoc": {
    "errors": {
      "AccessControlBadConfirmation()": [
        {
          "details": "The caller of a function is not the expected one. NOTE: Don't confuse with {AccessControlUnauthorizedAccount}."
        }
      ],
      "AccessControlUnauthorizedAccount(address,bytes32)": [
        {
          "details": "The `account` is missing a role."
        }
      ],
      "OwnableInvalidOwner(address)": [
        {
          "details": "The owner is not a valid owner account. (eg. `address(0)`)"
        }
      ],
      "OwnableUnauthorizedAccount(address)": [
        {
          "details": "The caller account is not authorized to perform an operation."
        }
      ]
    },
    "events": {
      "RoleAdminChanged(bytes32,bytes32,bytes32)": {
        "details": "Emitted when `newAdminRole` is set as ``role``'s admin role, replacing `previousAdminRole` `DEFAULT_ADMIN_ROLE` is the starting admin for all roles, despite {RoleAdminChanged} not being emitted to signal this."
      },
      "RoleGranted(bytes32,address,address)": {
        "details": "Emitted when `account` is granted `role`. `sender` is the account that originated the contract call. This account bears the admin role (for the granted role). Expected in cases where the role was granted using the internal {AccessControl-_grantRole}."
      },
      "RoleRevoked(bytes32,address,address)": {
        "details": "Emitted when `account` is revoked `role`. `sender` is the account that originated the contract call:   - if using `revokeRole`, it is the admin role bearer   - if using `renounceRole`, it is the role bearer (i.e. `account`)"
      }
    },
    "kind": "dev",
    "methods": {
      "getRoleAdmin(bytes32)": {
        "details": "Returns the admin role that controls `role`. See {grantRole} and {revokeRole}. To change a role's admin, use {_setRoleAdmin}."
      },
      "grantRole(bytes32,address)": {
        "details": "Grants `role` to `account`. If `account` had not been already granted `role`, emits a {RoleGranted} event. Requirements: - the caller must have ``role``'s admin role. May emit a {RoleGranted} event."
      },
      "hasRole(bytes32,address)": {
        "details": "Returns `true` if `account` has been granted `role`."
      },
      "owner()": {
        "details": "Returns the address of the current owner."
      },
      "renounceOwnership()": {
        "details": "Leaves the contract without owner. It will not be possible to call `onlyOwner` functions. Can only be called by the current owner. NOTE: Renouncing ownership will leave the contract without an owner, thereby disabling any functionality that is only available to the owner."
      },
      "revokeRole(bytes32,address)": {
        "details": "Revokes `role` from `account`. If `account` had been granted `role`, emits a {RoleRevoked} event. Requirements: - the caller must have ``role``'s admin role. May emit a {RoleRevoked} event."
      },
      "supportsInterface(bytes4)": {
        "details": "See {IERC165-supportsInterface}."
      },
      "transferOwnership(address)": {
        "details": "Transfers ownership of the contract to a new account (`newOwner`). Can only be called by the current owner."
      }
    },
    "version": 1
  },
  "userdoc": {
    "kind": "user",
    "methods": {},
    "version": 1
  }
}