{
  "contractName": "DrugTracking",
  "abi": [
    {
      "inputs": [],
      "stateMutability": "nonpayable",
      "type": "constructor"
    },
    {
      "inputs": [],
      "name": "AccessControlBadConfirmation",
      "type": "error"
    },
    {
      "inputs": [
        {
          "internalType": "address",
          "name": "account",
          "type": "address"
        },
        {
          "internalType": "bytes32",
          "name": "neededRole",
          "type": "bytes32"
        }
      ],
      "name": "AccessControlUnauthorizedAccount",
      "type": "error"
    },
    {
      "inputs": [
        {
          "internalType": "address",
          "name": "owner",
          "type": "address"
        }
      ],
      "name": "OwnableInvalidOwner",
      "type": "error"
    },
    {
      "inputs": [
        {
          "internalType": "address",
          "name": "account",
          "type": "address"
        }
      ],
      "name": "OwnableUnauthorizedAccount",
      "type": "error"
    },
    {
      "anonymous": false,
      "inputs": [
        {
          "indexed": false,
          "internalType": "string",
          "name": "id",
          "type": "string"
        },
        {
          "indexed": false,
          "internalType": "uint256",
          "name": "timestamp",
          "type": "uint256"
        },
        {
          "indexed": false,
          "internalType": "string",
          "name": "details",
          "type": "string"
        }
      ],
      "name": "ColdChainViolation",
      "type": "event"
    },
    {
      "anonymous": false,
      "inputs": [
        {
          "indexed": false,
          "internalType": "string",
          "name": "id",
          "type": "string"
        },
        {
          "indexed": false,
          "internalType": "string",
          "name": "productId",
          "type": "string"
        },
        {
          "indexed": false,
          "internalType": "string",
          "name": "batchId",
          "type": "string"
        },
        {
          "indexed": false,
          "internalType": "address",
          "name": "manufacturer",
          "type": "address"
        }
      ],
      "name": "DrugManufactured",
      "type": "event"
    },
    {
      "anonymous": false,
      "inputs": [
        {
          "indexed": false,
          "internalType": "string",
          "name": "id",
          "type": "string"
        },
        {
          "indexed": false,
          "internalType": "address",
          "name": "from",
          "type": "address"
        },
        {
          "indexed": false,
          "internalType": "address",
          "name": "to",
          "type": "address"
        },
        {
          "indexed": false,
          "internalType": "string",
          "name": "newStatus",
          "type": "string"
        }
      ],
      "name": "DrugTransferred",
      "type": "event"
    },
    {
      "anonymous": false,
      "inputs": [
        {
          "indexed": true,
          "internalType": "address",
          "name": "previousOwner",
          "type": "address"
        },
        {
          "indexed": true,
          "internalType": "address",
          "name": "newOwner",
          "type": "address"
        }
      ],
      "name": "OwnershipTransferred",
      "type": "event"
    },
    {
      "anonymous": false,
      "inputs": [
        {
          "indexed": true,
          "internalType": "bytes32",
          "name": "role",
          "type": "bytes32"
        },
        {
          "indexed": true,
          "internalType": "bytes32",
          "name": "previousAdminRole",
          "type": "bytes32"
        },
        {
          "indexed": true,
          "internalType": "bytes32",
          "name": "newAdminRole",
          "type": "bytes32"
        }
      ],
      "name": "RoleAdminChanged",
      "type": "event"
    },
    {
      "anonymous": false,
      "inputs": [
        {
          "indexed": true,
          "internalType": "bytes32",
          "name": "role",
          "type": "bytes32"
        },
        {
          "indexed": true,
          "internalType": "address",
          "name": "account",
          "type": "address"
        },
        {
          "indexed": true,
          "internalType": "address",
          "name": "sender",
          "type": "address"
        }
      ],
      "name": "RoleGranted",
      "type": "event"
    },
    {
      "anonymous": false,
      "inputs": [
        {
          "indexed": true,
          "internalType": "bytes32",
          "name": "role",
          "type": "bytes32"
        },
        {
          "indexed": true,
          "internalType": "address",
          "name": "account",
          "type": "address"
        },
        {
          "indexed": true,
          "internalType": "address",
          "name": "sender",
          "type": "address"
        }
      ],
      "name": "RoleRevoked",
      "type": "event"
    },
    {
      "inputs": [],
      "name": "DEFAULT_ADMIN_ROLE",
      "outputs": [
        {
          "internalType": "bytes32",
          "name": "",
          "type": "bytes32"
        }
      ],
      "stateMutability": "view",
      "type": "function",
      "constant": true
    },
    {
      "inputs": [],
      "name": "DISTRIBUTOR_ROLE",
      "outputs": [
        {
          "internalType": "bytes32",
          "name": "",
          "type": "bytes32"
        }
      ],
      "stateMutability": "view",
      "type": "function",
      "constant": true
    },
    {
      "inputs": [],
      "name": "MANUFACTURER_ROLE",
      "outputs": [
        {
          "internalType": "bytes32",
          "name": "",
          "type": "bytes32"
        }
      ],
      "stateMutability": "view",
      "type": "function",
      "constant": true
    },
    {
      "inputs": [],
      "name": "PHARMACY_ROLE",
      "outputs": [
        {
          "internalType": "bytes32",
          "name": "",
          "type": "bytes32"
        }
      ],
      "stateMutability": "view",
      "type": "function",
      "constant": true
    },
    {
      "inputs": [],
      "name": "REGULATOR_ROLE",
      "outputs": [
        {
          "internalType": "bytes32",
          "name": "",
          "type": "bytes32"
        }
      ],
      "stateMutability": "view",
      "type": "function",
      "constant": true
    },
    {
      "inputs": [
        {
          "internalType": "string",
          "name": "",
          "type": "string"
        }
      ],
      "name": "drugs",
      "outputs": [
        {
          "internalType": "string",
          "name": "id",
          "type": "string"
        },
        {
          "internalType": "string",
          "name": "productId",
          "type": "string"
        },
        {
          "internalType": "string",
          "name": "batchId",
          "type": "string"
        },
        {
          "internalType": "address",
          "name": "manufacturer",
          "type": "address"
        },
        {
          "internalType": "address",
          "name": "currentOwner",
          "type": "address"
        },
        {
          "internalType": "string",
          "name": "status",
          "type": "string"
        },
        {
          "internalType": "uint256",
          "name": "lastUpdateTimestamp",
          "type": "uint256"
        }
      ],
      "stateMutability": "view",
      "type": "function",
      "constant": true
    },
    {
      "inputs": [
        {
          "internalType": "bytes32",
          "name": "role",
          "type": "bytes32"
        }
      ],
      "name": "getRoleAdmin",
      "outputs": [
        {
          "internalType": "bytes32",
          "name": "",
          "type": "bytes32"
        }
      ],
      "stateMutability": "view",
      "type": "function",
      "constant": true
    },
    {
      "inputs": [],
      "name": "owner",
      "outputs": [
        {
          "internalType": "address",
          "name": "",
          "type": "address"
        }
      ],
      "stateMutability": "view",
      "type": "function",
      "constant": true
    },
    {
      "inputs": [],
      "name": "renounceOwnership",
      "outputs": [],
      "stateMutability": "nonpayable",
      "type": "function"
    },
    {
      "inputs": [
        {
          "internalType": "bytes4",
          "name": "interfaceId",
          "type": "bytes4"
        }
      ],
      "name": "supportsInterface",
      "outputs": [
        {
          "internalType": "bool",
          "name": "",
          "type": "bool"
        }
      ],
      "stateMutability": "view",
      "type": "function",
      "constant": true
    },
    {
      "inputs": [
        {
          "internalType": "address",
          "name": "newOwner",
          "type": "address"
        }
      ],
      "name": "transferOwnership",
      "outputs": [],
      "stateMutability": "nonpayable",
      "type": "function"
    },
    {
      "inputs": [
        {
          "internalType": "bytes32",
          "name": "role",
          "type": "bytes32"
        },
        {
          "internalType": "address",
          "name": "account",
          "type": "address"
        }
      ],
      "name": "grantRole",
      "outputs": [],
      "stateMutability": "nonpayable",
      "type": "function"
    },
    {
      "inputs": [
        {
          "internalType": "bytes32",
          "name": "role",
          "type": "bytes32"
        },
        {
          "internalType": "address",
          "name": "account",
          "type": "address"
        }
      ],
      "name": "revokeRole",
      "outputs": [],
      "stateMutability": "nonpayable",
      "type": "function"
    },
    {
      "inputs": [
        {
          "internalType": "bytes32",
          "name": "role",
          "type": "bytes32"
        },
        {
          "internalType": "address",
          "name": "account",
          "type": "address"
        }
      ],
      "name": "renounceRole",
      "outputs": [],
      "stateMutability": "nonpayable",
      "type": "function"
    },
    {
      "inputs": [
        {
          "internalType": "bytes32",
          "name": "role",
          "type": "bytes32"
        },
        {
          "internalType": "address",
          "name": "account",
          "type": "address"
        }
      ],
      "name": "hasRole",
      "outputs": [
        {
          "internalType": "bool",
          "name": "",
          "type": "bool"
        }
      ],
      "stateMutability": "view",
      "type": "function",
      "constant": true
    },
    {
      "inputs": [
        {
          "internalType": "string",
          "name": "_id",
          "type": "string"
        },
        {
          "internalType": "string",
          "name": "_productId",
          "type": "string"
        },
        {
          "internalType": "string",
          "name": "_batchId",
          "type": "string"
        }
      ],
      "name": "manufactureDrug",
      "outputs": [],
      "stateMutability": "nonpayable",
      "type": "function"
    },
    {
      "inputs": [
        {
          "internalType": "string",
          "name": "_id",
          "type": "string"
        },
        {
          "internalType": "address",
          "name": "_newOwner",
          "type": "address"
        },
        {
          "internalType": "string",
          "name": "_newStatus",
          "type": "string"
        }
      ],
      "name": "transferDrug",
      "outputs": [],
      "stateMutability": "nonpayable",
      "type": "function"
    },
    {
      "inputs": [
        {
          "internalType": "string",
          "name": "_id",
          "type": "string"
        },
        {
          "internalType": "string",
          "name": "_details",
          "type": "string"
        }
      ],
      "name": "logColdChainViolation",
      "outputs": [],
      "stateMutability": "nonpayable",
      "type": "function"
    },
    {
      "inputs": [
        {
          "internalType": "string",
          "name": "_id",
          "type": "string"
        }
      ],
      "name": "verifyDrug",
      "outputs": [
        {
          "internalType": "string",
          "name": "productId",
          "type": "string"
        },
        {
          "internalType": "string",
          "name": "batchId",
          "type": "string"
        },
        {
          "internalType": "address",
          "name": "manufacturer",
          "type": "address"
        },
        {
          "internalType": "address",
          "name": "currentOwner",
          "type": "address"
        },
        {
          "internalType": "string",
          "name": "status",
          "type": "string"
        },
        {
          "internalType": "string[]",
          "name": "history",
          "type": "string[]"
        }
      ],
      "stateMutability": "view",
      "type": "function",
      "constant": true
    }
  ],
  "bytecode": "0x608060405234801561000f575f80fd5b50335f73ffffffffffffffffffffffffffffffffffffffff168173ffffffffffffffffffffffffffffffffffffffff1603610081575f6040517f1e4fbdf70000000000000000000000000000000000000000000000000000000081526004016100789190610385565b60405180910390fd5b6100908161010b60201b60201c565b506100a35f801b336101ce60201b60201c565b506100d47feefb95e842a3287179d933b4460be539a1d5af11aa8b325bb45c5c8dc92de4ed336101ce60201b60201c565b506101057f20b5f7ac978e5d6199de06401411960dfa81d2f762655f6206bdc61d46fc19e6336101ce60201b60201c565b5061039e565b5f60015f9054906101000a900473ffffffffffffffffffffffffffffffffffffffff1690508160015f6101000a81548173ffffffffffffffffffffffffffffffffffffffff021916908373ffffffffffffffffffffffffffffffffffffffff1602179055508173ffffffffffffffffffffffffffffffffffffffff168173ffffffffffffffffffffffffffffffffffffffff167f8be0079c531659141344cd1fd0a4f28419497f9722a3daafe3b4186f6b6457e060405160405180910390a35050565b5f6101df83836102c360201b60201c565b6102b95760015f808581526020019081526020015f205f015f8473ffffffffffffffffffffffffffffffffffffffff1673ffffffffffffffffffffffffffffffffffffffff1681526020019081526020015f205f6101000a81548160ff0219169083151502179055506102566102dc60201b60201c565b73ffffffffffffffffffffffffffffffffffffffff168273ffffffffffffffffffffffffffffffffffffffff16847f2f8788117e7eff1d82e926ec794901d17c78024a50270940304540a733656f0d60405160405180910390a4600190506102bd565b5f90505b92915050565b5f6102d483836102e360201b60201c565b905092915050565b5f33905090565b5f805f8481526020019081526020015f205f015f8373ffffffffffffffffffffffffffffffffffffffff1673ffffffffffffffffffffffffffffffffffffffff1681526020019081526020015f205f9054906101000a900460ff16905092915050565b5f73ffffffffffffffffffffffffffffffffffffffff82169050919050565b5f61036f82610346565b9050919050565b61037f81610365565b82525050565b5f6020820190506103985f830184610376565b92915050565b6132bc806103ab5f395ff3fe608060405234801561000f575f80fd5b506004361061011f575f3560e01c80638da5cb5b116100ab578063d547741f1161006f578063d547741f14610310578063d5ccb9401461032c578063f0bd87cc14610348578063f0c58ea714610366578063f2fde38b146103845761011f565b80638da5cb5b1461025057806391d148541461026e578063965288b01461029e578063a217fddf146102bc578063b009493d146102da5761011f565b806336568abe116100f257806336568abe146101bd5780633b7b0a74146101d95780635a05973d1461020e578063715018a61461022a578063722b743d146102345761011f565b806301ffc9a714610123578063144bf58914610153578063248a9ca3146101715780632f2ff15d146101a1575b5f80fd5b61013d60048036038101906101389190611f9f565b6103a0565b60405161014a9190611fe4565b60405180910390f35b61015b610419565b6040516101689190612015565b60405180910390f35b61018b60048036038101906101869190612058565b61043d565b6040516101989190612015565b60405180910390f35b6101bb60048036038101906101b691906120dd565b610459565b005b6101d760048036038101906101d291906120dd565b610474565b005b6101f360048036038101906101ee9190612257565b610482565b60405161020596959493929190612410565b60405180910390f35b6102286004803603810190610223919061248b565b61087f565b005b610232610bee565b005b61024e6004803603810190610249919061252f565b610c01565b005b610258610d5d565b60405161026591906125a5565b60405180910390f35b610288600480360381019061028391906120dd565b610d85565b6040516102959190611fe4565b60405180910390f35b6102a6610d98565b6040516102b39190612015565b60405180910390f35b6102c4610dbc565b6040516102d19190612015565b60405180910390f35b6102f460048036038101906102ef9190612257565b610dc2565b60405161030797969594939291906125d6565b60405180910390f35b61032a600480360381019061032591906120dd565b61106e565b005b6103466004803603810190610341919061265f565b611089565b005b61035061144c565b60405161035d9190612015565b60405180910390f35b61036e611470565b60405161037b9190612015565b60405180910390f35b61039e600480360381019061039991906126e7565b611494565b005b5f7f7965db0b000000000000000000000000000000000000000000000000000000007bffffffffffffffffffffffffffffffffffffffffffffffffffffffff1916827bffffffffffffffffffffffffffffffffffffffffffffffffffffffff19161480610412575061041182611518565b5b9050919050565b7f20b5f7ac978e5d6199de06401411960dfa81d2f762655f6206bdc61d46fc19e681565b5f805f8381526020019081526020015f20600101549050919050565b5f801b61046581611581565b61046f8383611595565b505050565b61047e82826115b7565b5050565b6060805f806060805f60028860405161049b919061274c565b90815260200160405180910390205f0180546104b69061278f565b9050116104f8576040517f08c379a00000000000000000000000000000000000000000000000000000000081526004016104ef90612809565b60405180910390fd5b600287604051610508919061274c565b9081526020016040518091039020600101600288604051610529919061274c565b908152602001604051809103902060020160028960405161054a919061274c565b90815260200160405180910390206003015f9054906101000a900473ffffffffffffffffffffffffffffffffffffffff1660028a60405161058b919061274c565b90815260200160405180910390206004015f9054906101000a900473ffffffffffffffffffffffffffffffffffffffff1660028b6040516105cc919061274c565b908152602001604051809103902060050160028c6040516105ed919061274c565b908152602001604051809103902060070185805461060a9061278f565b80601f01602080910402602001604051908101604052809291908181526020018280546106369061278f565b80156106815780601f1061065857610100808354040283529160200191610681565b820191905f5260205f20905b81548152906001019060200180831161066457829003601f168201915b505050505095508480546106949061278f565b80601f01602080910402602001604051908101604052809291908181526020018280546106c09061278f565b801561070b5780601f106106e25761010080835404028352916020019161070b565b820191905f5260205f20905b8154815290600101906020018083116106ee57829003601f168201915b5050505050945081805461071e9061278f565b80601f016020809104026020016040519081016040528092919081815260200182805461074a9061278f565b80156107955780601f1061076c57610100808354040283529160200191610795565b820191905f5260205f20905b81548152906001019060200180831161077857829003601f168201915b5050505050915080805480602002602001604051908101604052809291908181526020015f905b82821015610864578382905f5260205f200180546107d99061278f565b80601f01602080910402602001604051908101604052809291908181526020018280546108059061278f565b80156108505780601f1061082757610100808354040283529160200191610850565b820191905f5260205f20905b81548152906001019060200180831161083357829003601f168201915b5050505050815260200190600101906107bc565b50505050905095509550955095509550955091939550919395565b7feefb95e842a3287179d933b4460be539a1d5af11aa8b325bb45c5c8dc92de4ed6108a981611581565b5f6002856040516108ba919061274c565b90815260200160405180910390205f0180546108d59061278f565b905014610917576040517f08c379a000000000000000000000000000000000000000000000000000000000815260040161090e90612897565b60405180910390fd5b6040518061010001604052808581526020018481526020018381526020013373ffffffffffffffffffffffffffffffffffffffff1681526020013373ffffffffffffffffffffffffffffffffffffffff1681526020016040518060400160405280600c81526020017f4d414e554641435455524544000000000000000000000000000000000000000081525081526020014281526020015f67ffffffffffffffff8111156109c8576109c7612133565b5b6040519080825280602002602001820160405280156109fb57816020015b60608152602001906001900390816109e65790505b50815250600285604051610a0f919061274c565b90815260200160405180910390205f820151815f019081610a309190612a52565b506020820151816001019081610a469190612a52565b506040820151816002019081610a5c9190612a52565b506060820151816003015f6101000a81548173ffffffffffffffffffffffffffffffffffffffff021916908373ffffffffffffffffffffffffffffffffffffffff1602179055506080820151816004015f6101000a81548173ffffffffffffffffffffffffffffffffffffffff021916908373ffffffffffffffffffffffffffffffffffffffff16021790555060a0820151816005019081610afe9190612a52565b5060c0820151816006015560e0820151816007019080519060200190610b25929190611e67565b50905050600284604051610b39919061274c565b9081526020016040518091039020600701610b5333611632565b610b5c42611915565b604051602001610b6d929190612bb5565b604051602081830303815290604052908060018154018082558091505060019003905f5260205f20015f909190919091509081610baa9190612a52565b507f9895ccb07b2d9d1127dc80aedcc8f102de79a9af92d354c80e99750cf3b7537284848433604051610be09493929190612bee565b60405180910390a150505050565b610bf6611a6e565b610bff5f611af5565b565b7f20b5f7ac978e5d6199de06401411960dfa81d2f762655f6206bdc61d46fc19e6610c2b81611581565b5f600284604051610c3c919061274c565b90815260200160405180910390205f018054610c579061278f565b905011610c99576040517f08c379a0000000000000000000000000000000000000000000000000000000008152600401610c9090612809565b60405180910390fd5b600283604051610ca9919061274c565b908152602001604051809103902060070182610cc433611632565b610ccd42611915565b604051602001610cdf93929190612cda565b604051602081830303815290604052908060018154018082558091505060019003905f5260205f20015f909190919091509081610d1c9190612a52565b507fa4b5f4d6d86454a9f5a5bfc80cd041bed01c182b643da02c6c0cd6cc12e82399834284604051610d5093929190612d2b565b60405180910390a1505050565b5f60015f9054906101000a900473ffffffffffffffffffffffffffffffffffffffff16905090565b5f610d908383611bb8565b905092915050565b7feefb95e842a3287179d933b4460be539a1d5af11aa8b325bb45c5c8dc92de4ed81565b5f801b81565b6002818051602081018201805184825260208301602085012081835280955050505050505f91509050805f018054610df99061278f565b80601f0160208091040260200160405190810160405280929190818152602001828054610e259061278f565b8015610e705780601f10610e4757610100808354040283529160200191610e70565b820191905f5260205f20905b815481529060010190602001808311610e5357829003601f168201915b505050505090806001018054610e859061278f565b80601f0160208091040260200160405190810160405280929190818152602001828054610eb19061278f565b8015610efc5780601f10610ed357610100808354040283529160200191610efc565b820191905f5260205f20905b815481529060010190602001808311610edf57829003601f168201915b505050505090806002018054610f119061278f565b80601f0160208091040260200160405190810160405280929190818152602001828054610f3d9061278f565b8015610f885780601f10610f5f57610100808354040283529160200191610f88565b820191905f5260205f20905b815481529060010190602001808311610f6b57829003601f168201915b505050505090806003015f9054906101000a900473ffffffffffffffffffffffffffffffffffffffff1690806004015f9054906101000a900473ffffffffffffffffffffffffffffffffffffffff1690806005018054610fe79061278f565b80601f01602080910402602001604051908101604052809291908181526020018280546110139061278f565b801561105e5780601f106110355761010080835404028352916020019161105e565b820191905f5260205f20905b81548152906001019060200180831161104157829003601f168201915b5050505050908060060154905087565b5f801b61107a81611581565b6110848383611c1b565b505050565b825f60028260405161109b919061274c565b90815260200160405180910390205f0180546110b69061278f565b9050116110f8576040517f08c379a00000000000000000000000000000000000000000000000000000000081526004016110ef90612db8565b60405180910390fd5b600281604051611108919061274c565b90815260200160405180910390206004015f9054906101000a900473ffffffffffffffffffffffffffffffffffffffff1673ffffffffffffffffffffffffffffffffffffffff163373ffffffffffffffffffffffffffffffffffffffff16146111a6576040517f08c379a000000000000000000000000000000000000000000000000000000000815260040161119d90612e46565b60405180910390fd5b5f6002856040516111b7919061274c565b90815260200160405180910390205f0180546111d29061278f565b905011611214576040517f08c379a000000000000000000000000000000000000000000000000000000000815260040161120b90612809565b60405180910390fd5b5f73ffffffffffffffffffffffffffffffffffffffff168373ffffffffffffffffffffffffffffffffffffffff1603611282576040517f08c379a000000000000000000000000000000000000000000000000000000000815260040161127990612ed4565b60405180910390fd5b5f600285604051611293919061274c565b90815260200160405180910390206004015f9054906101000a900473ffffffffffffffffffffffffffffffffffffffff169050836002866040516112d7919061274c565b90815260200160405180910390206004015f6101000a81548173ffffffffffffffffffffffffffffffffffffffff021916908373ffffffffffffffffffffffffffffffffffffffff16021790555082600286604051611336919061274c565b908152602001604051809103902060050190816113539190612a52565b5042600286604051611365919061274c565b90815260200160405180910390206006018190555060028560405161138a919061274c565b90815260200160405180910390206007016113a482611632565b6113ad86611632565b856113b742611915565b6040516020016113ca9493929190612fd0565b604051602081830303815290604052908060018154018082558091505060019003905f5260205f20015f9091909190915090816114079190612a52565b507f772cf988c6c8639e7b31e1e4a5786c5eb66313b250ccfb5e941e68626a64b30e8582868660405161143d9493929190613039565b60405180910390a15050505050565b7ffbd454f36a7e1a388bd6fc3ab10d434aa4578f811acbbcf33afb1c697486313c81565b7f2f3a5455f35aeca177ac653592f277fbe2fbafef01081a2030451bb2fb41c91d81565b61149c611a6e565b5f73ffffffffffffffffffffffffffffffffffffffff168173ffffffffffffffffffffffffffffffffffffffff160361150c575f6040517f1e4fbdf700000000000000000000000000000000000000000000000000000000815260040161150391906125a5565b60405180910390fd5b61151581611af5565b50565b5f7f01ffc9a7000000000000000000000000000000000000000000000000000000007bffffffffffffffffffffffffffffffffffffffffffffffffffffffff1916827bffffffffffffffffffffffffffffffffffffffffffffffffffffffff1916149050919050565b6115928161158d611c3d565b611c44565b50565b61159e8261043d565b6115a781611581565b6115b18383611c95565b50505050565b6115bf611c3d565b73ffffffffffffffffffffffffffffffffffffffff168173ffffffffffffffffffffffffffffffffffffffff1614611623576040517f6697b23200000000000000000000000000000000000000000000000000000000815260040160405180910390fd5b61162d8282611d7e565b505050565b60605f8273ffffffffffffffffffffffffffffffffffffffff165f1b90505f6040518060400160405280601081526020017f303132333435363738396162636465660000000000000000000000000000000081525090505f602a67ffffffffffffffff8111156116a5576116a4612133565b5b6040519080825280601f01601f1916602001820160405280156116d75781602001600182028036833780820191505090505b5090507f3000000000000000000000000000000000000000000000000000000000000000815f8151811061170e5761170d61308a565b5b60200101907effffffffffffffffffffffffffffffffffffffffffffffffffffffffffffff191690815f1a9053507f7800000000000000000000000000000000000000000000000000000000000000816001815181106117715761177061308a565b5b60200101907effffffffffffffffffffffffffffffffffffffffffffffffffffffffffffff191690815f1a9053505f5b6014811015611909578260048583602081106117c0576117bf61308a565b5b1a60f81b7effffffffffffffffffffffffffffffffffffffffffffffffffffffffffffff1916901c60f81c60ff16815181106117ff576117fe61308a565b5b602001015160f81c60f81b8260028361181891906130e4565b60026118249190613125565b815181106118355761183461308a565b5b60200101907effffffffffffffffffffffffffffffffffffffffffffffffffffffffffffff191690815f1a90535082600f60f81b85836020811061187c5761187b61308a565b5b1a60f81b1660f81c60ff16815181106118985761189761308a565b5b602001015160f81c60f81b826002836118b191906130e4565b60036118bd9190613125565b815181106118ce576118cd61308a565b5b60200101907effffffffffffffffffffffffffffffffffffffffffffffffffffffffffffff191690815f1a90535080806001019150506117a1565b50809350505050919050565b60605f820361195b576040518060400160405280600181526020017f30000000000000000000000000000000000000000000000000000000000000008152509050611a69565b5f8290505f5b5f821461198a57808061197390613158565b915050600a8261198391906131cc565b9150611961565b5f8167ffffffffffffffff8111156119a5576119a4612133565b5b6040519080825280601f01601f1916602001820160405280156119d75781602001600182028036833780820191505090505b5090505b5f8514611a62576001826119ef91906131fc565b9150600a856119fe919061322f565b6030611a0a9190613125565b60f81b818381518110611a2057611a1f61308a565b5b60200101907effffffffffffffffffffffffffffffffffffffffffffffffffffffffffffff191690815f1a905350600a85611a5b91906131cc565b94506119db565b8093505050505b919050565b611a76611c3d565b73ffffffffffffffffffffffffffffffffffffffff16611a94610d5d565b73ffffffffffffffffffffffffffffffffffffffff1614611af357611ab7611c3d565b6040517f118cdaa7000000000000000000000000000000000000000000000000000000008152600401611aea91906125a5565b60405180910390fd5b565b5f60015f9054906101000a900473ffffffffffffffffffffffffffffffffffffffff1690508160015f6101000a81548173ffffffffffffffffffffffffffffffffffffffff021916908373ffffffffffffffffffffffffffffffffffffffff1602179055508173ffffffffffffffffffffffffffffffffffffffff168173ffffffffffffffffffffffffffffffffffffffff167f8be0079c531659141344cd1fd0a4f28419497f9722a3daafe3b4186f6b6457e060405160405180910390a35050565b5f805f8481526020019081526020015f205f015f8373ffffffffffffffffffffffffffffffffffffffff1673ffffffffffffffffffffffffffffffffffffffff1681526020019081526020015f205f9054906101000a900460ff16905092915050565b611c248261043d565b611c2d81611581565b611c378383611d7e565b50505050565b5f33905090565b611c4e8282610d85565b611c915780826040517fe2517d3f000000000000000000000000000000000000000000000000000000008152600401611c8892919061325f565b60405180910390fd5b5050565b5f611ca08383610d85565b611d745760015f808581526020019081526020015f205f015f8473ffffffffffffffffffffffffffffffffffffffff1673ffffffffffffffffffffffffffffffffffffffff1681526020019081526020015f205f6101000a81548160ff021916908315150217905550611d11611c3d565b73ffffffffffffffffffffffffffffffffffffffff168273ffffffffffffffffffffffffffffffffffffffff16847f2f8788117e7eff1d82e926ec794901d17c78024a50270940304540a733656f0d60405160405180910390a460019050611d78565b5f90505b92915050565b5f611d898383610d85565b15611e5d575f805f8581526020019081526020015f205f015f8473ffffffffffffffffffffffffffffffffffffffff1673ffffffffffffffffffffffffffffffffffffffff1681526020019081526020015f205f6101000a81548160ff021916908315150217905550611dfa611c3d565b73ffffffffffffffffffffffffffffffffffffffff168273ffffffffffffffffffffffffffffffffffffffff16847ff6391f5c32d9c69d2a47ea670b442974b53935d1edc7fd64eb21e047a839171b60405160405180910390a460019050611e61565b5f90505b92915050565b828054828255905f5260205f20908101928215611ead579160200282015b82811115611eac578251829081611e9c9190612a52565b5091602001919060010190611e85565b5b509050611eba9190611ebe565b5090565b5b80821115611edd575f8181611ed49190611ee1565b50600101611ebf565b5090565b508054611eed9061278f565b5f825580601f10611efe5750611f1b565b601f0160209004905f5260205f2090810190611f1a9190611f1e565b5b50565b5b80821115611f35575f815f905550600101611f1f565b5090565b5f604051905090565b5f80fd5b5f80fd5b5f7fffffffff0000000000000000000000000000000000000000000000000000000082169050919050565b611f7e81611f4a565b8114611f88575f80fd5b50565b5f81359050611f9981611f75565b92915050565b5f60208284031215611fb457611fb3611f42565b5b5f611fc184828501611f8b565b91505092915050565b5f8115159050919050565b611fde81611fca565b82525050565b5f602082019050611ff75f830184611fd5565b92915050565b5f819050919050565b61200f81611ffd565b82525050565b5f6020820190506120285f830184612006565b92915050565b61203781611ffd565b8114612041575f80fd5b50565b5f813590506120528161202e565b92915050565b5f6020828403121561206d5761206c611f42565b5b5f61207a84828501612044565b91505092915050565b5f73ffffffffffffffffffffffffffffffffffffffff82169050919050565b5f6120ac82612083565b9050919050565b6120bc816120a2565b81146120c6575f80fd5b50565b5f813590506120d7816120b3565b92915050565b5f80604083850312156120f3576120f2611f42565b5b5f61210085828601612044565b9250506020612111858286016120c9565b9150509250929050565b5f80fd5b5f80fd5b5f601f19601f8301169050919050565b7f4e487b71000000000000000000000000000000000000000000000000000000005f52604160045260245ffd5b61216982612123565b810181811067ffffffffffffffff8211171561218857612187612133565b5b80604052505050565b5f61219a611f39565b90506121a68282612160565b919050565b5f67ffffffffffffffff8211156121c5576121c4612133565b5b6121ce82612123565b9050602081019050919050565b828183375f83830152505050565b5f6121fb6121f6846121ab565b612191565b9050828152602081018484840111156122175761221661211f565b5b6122228482856121db565b509392505050565b5f82601f83011261223e5761223d61211b565b5b813561224e8482602086016121e9565b91505092915050565b5f6020828403121561226c5761226b611f42565b5b5f82013567ffffffffffffffff81111561228957612288611f46565b5b6122958482850161222a565b91505092915050565b5f81519050919050565b5f82825260208201905092915050565b8281835e5f83830152505050565b5f6122d08261229e565b6122da81856122a8565b93506122ea8185602086016122b8565b6122f381612123565b840191505092915050565b612307816120a2565b82525050565b5f81519050919050565b5f82825260208201905092915050565b5f819050602082019050919050565b5f82825260208201905092915050565b5f6123508261229e565b61235a8185612336565b935061236a8185602086016122b8565b61237381612123565b840191505092915050565b5f6123898383612346565b905092915050565b5f602082019050919050565b5f6123a78261230d565b6123b18185612317565b9350836020820285016123c385612327565b805f5b858110156123fe57848403895281516123df858261237e565b94506123ea83612391565b925060208a019950506001810190506123c6565b50829750879550505050505092915050565b5f60c0820190508181035f83015261242881896122c6565b9050818103602083015261243c81886122c6565b905061244b60408301876122fe565b61245860608301866122fe565b818103608083015261246a81856122c6565b905081810360a083015261247e818461239d565b9050979650505050505050565b5f805f606084860312156124a2576124a1611f42565b5b5f84013567ffffffffffffffff8111156124bf576124be611f46565b5b6124cb8682870161222a565b935050602084013567ffffffffffffffff8111156124ec576124eb611f46565b5b6124f88682870161222a565b925050604084013567ffffffffffffffff81111561251957612518611f46565b5b6125258682870161222a565b9150509250925092565b5f806040838503121561254557612544611f42565b5b5f83013567ffffffffffffffff81111561256257612561611f46565b5b61256e8582860161222a565b925050602083013567ffffffffffffffff81111561258f5761258e611f46565b5b61259b8582860161222a565b9150509250929050565b5f6020820190506125b85f8301846122fe565b92915050565b5f819050919050565b6125d0816125be565b82525050565b5f60e0820190508181035f8301526125ee818a6122c6565b9050818103602083015261260281896122c6565b9050818103604083015261261681886122c6565b905061262560608301876122fe565b61263260808301866122fe565b81810360a083015261264481856122c6565b905061265360c08301846125c7565b98975050505050505050565b5f805f6060848603121561267657612675611f42565b5b5f84013567ffffffffffffffff81111561269357612692611f46565b5b61269f8682870161222a565b93505060206126b0868287016120c9565b925050604084013567ffffffffffffffff8111156126d1576126d0611f46565b5b6126dd8682870161222a565b9150509250925092565b5f602082840312156126fc576126fb611f42565b5b5f612709848285016120c9565b91505092915050565b5f81905092915050565b5f6127268261229e565b6127308185612712565b93506127408185602086016122b8565b80840191505092915050565b5f612757828461271c565b915081905092915050565b7f4e487b71000000000000000000000000000000000000000000000000000000005f52602260045260245ffd5b5f60028204905060018216806127a657607f821691505b6020821081036127b9576127b8612762565b5b50919050565b7f44727567206e6f7420666f756e642e00000000000000000000000000000000005f82015250565b5f6127f3600f836122a8565b91506127fe826127bf565b602082019050919050565b5f6020820190508181035f830152612820816127e7565b9050919050565b7f447275672077697468207468697320494420616c7265616479206578697374735f8201527f2e00000000000000000000000000000000000000000000000000000000000000602082015250565b5f6128816021836122a8565b915061288c82612827565b604082019050919050565b5f6020820190508181035f8301526128ae81612875565b9050919050565b5f819050815f5260205f209050919050565b5f6020601f8301049050919050565b5f82821b905092915050565b5f600883026129117fffffffffffffffffffffffffffffffffffffffffffffffffffffffffffffffff826128d6565b61291b86836128d6565b95508019841693508086168417925050509392505050565b5f819050919050565b5f61295661295161294c846125be565b612933565b6125be565b9050919050565b5f819050919050565b61296f8361293c565b61298361297b8261295d565b8484546128e2565b825550505050565b5f90565b61299761298b565b6129a2818484612966565b505050565b5b818110156129c5576129ba5f8261298f565b6001810190506129a8565b5050565b601f821115612a0a576129db816128b5565b6129e4846128c7565b810160208510156129f3578190505b612a076129ff856128c7565b8301826129a7565b50505b505050565b5f82821c905092915050565b5f612a2a5f1984600802612a0f565b1980831691505092915050565b5f612a428383612a1b565b9150826002028217905092915050565b612a5b8261229e565b67ffffffffffffffff811115612a7457612a73612133565b5b612a7e825461278f565b612a898282856129c9565b5f60209050601f831160018114612aba575f8415612aa8578287015190505b612ab28582612a37565b865550612b19565b601f198416612ac8866128b5565b5f5b82811015612aef57848901518255600182019150602085019450602081019050612aca565b86831015612b0c5784890151612b08601f891682612a1b565b8355505b6001600288020188555050505b505050505050565b7f4d414e55464143545552454420627920000000000000000000000000000000005f82015250565b5f612b55601083612712565b9150612b6082612b21565b601082019050919050565b7f20617420000000000000000000000000000000000000000000000000000000005f82015250565b5f612b9f600483612712565b9150612baa82612b6b565b600482019050919050565b5f612bbf82612b49565b9150612bcb828561271c565b9150612bd682612b93565b9150612be2828461271c565b91508190509392505050565b5f6080820190508181035f830152612c0681876122c6565b90508181036020830152612c1a81866122c6565b90508181036040830152612c2e81856122c6565b9050612c3d60608301846122fe565b95945050505050565b7f434f4c445f434841494e5f56494f4c4154494f4e3a20000000000000000000005f82015250565b5f612c7a601683612712565b9150612c8582612c46565b601682019050919050565b7f20627920000000000000000000000000000000000000000000000000000000005f82015250565b5f612cc4600483612712565b9150612ccf82612c90565b600482019050919050565b5f612ce482612c6e565b9150612cf0828661271c565b9150612cfb82612cb8565b9150612d07828561271c565b9150612d1282612b93565b9150612d1e828461271c565b9150819050949350505050565b5f6060820190508181035f830152612d4381866122c6565b9050612d5260208301856125c7565b8181036040830152612d6481846122c6565b9050949350505050565b7f44727567206e6f7420666f756e6420666f72206f776e657220636865636b2e005f82015250565b5f612da2601f836122a8565b9150612dad82612d6e565b602082019050919050565b5f6020820190508181035f830152612dcf81612d96565b9050919050565b7f4f6e6c79207468652063757272656e74206f776e6572206f66207468652064725f8201527f75672063616e20706572666f726d207468697320616374696f6e2e0000000000602082015250565b5f612e30603b836122a8565b9150612e3b82612dd6565b604082019050919050565b5f6020820190508181035f830152612e5d81612e24565b9050919050565b7f4e6577206f776e65722063616e6e6f74206265207a65726f20616464726573735f8201527f2e00000000000000000000000000000000000000000000000000000000000000602082015250565b5f612ebe6021836122a8565b9150612ec982612e64565b604082019050919050565b5f6020820190508181035f830152612eeb81612eb2565b9050919050565b7f5452414e534645525245442066726f6d200000000000000000000000000000005f82015250565b5f612f26601183612712565b9150612f3182612ef2565b601182019050919050565b7f20746f20000000000000000000000000000000000000000000000000000000005f82015250565b5f612f70600483612712565b9150612f7b82612f3c565b600482019050919050565b7f20617320000000000000000000000000000000000000000000000000000000005f82015250565b5f612fba600483612712565b9150612fc582612f86565b600482019050919050565b5f612fda82612f1a565b9150612fe6828761271c565b9150612ff182612f64565b9150612ffd828661271c565b915061300882612fae565b9150613014828561271c565b915061301f82612b93565b915061302b828461271c565b915081905095945050505050565b5f6080820190508181035f83015261305181876122c6565b905061306060208301866122fe565b61306d60408301856122fe565b818103606083015261307f81846122c6565b905095945050505050565b7f4e487b71000000000000000000000000000000000000000000000000000000005f52603260045260245ffd5b7f4e487b71000000000000000000000000000000000000000000000000000000005f52601160045260245ffd5b5f6130ee826125be565b91506130f9836125be565b9250828202613107816125be565b9150828204841483151761311e5761311d6130b7565b5b5092915050565b5f61312f826125be565b915061313a836125be565b9250828201905080821115613152576131516130b7565b5b92915050565b5f613162826125be565b91507fffffffffffffffffffffffffffffffffffffffffffffffffffffffffffffffff8203613194576131936130b7565b5b600182019050919050565b7f4e487b71000000000000000000000000000000000000000000000000000000005f52601260045260245ffd5b5f6131d6826125be565b91506131e1836125be565b9250826131f1576131f061319f565b5b828204905092915050565b5f613206826125be565b9150613211836125be565b9250828203905081811115613229576132286130b7565b5b92915050565b5f613239826125be565b9150613244836125be565b9250826132545761325361319f565b5b828206905092915050565b5f6040820190506132725f8301856122fe565b61327f6020830184612006565b939250505056fea264697066735822122044a6fd269e6ab9be0fcac0040dc79a96e9a44685847ee5a61972b18465effee064736f6c634300081a0033",
  "immutableReferences": {},
  "source": "// SPDX-License-Identifier: MIT\r\npragma solidity ^0.8.20; // Ensure this is 0.8.20 or higher\r\n\r\nimport \"@openzeppelin/contracts/access/AccessControl.sol\";\r\nimport \"@openzeppelin/contracts/access/Ownable.sol\";\r\n\r\ncontract DrugTracking is AccessControl, Ownable {\r\n    bytes32 public constant MANUFACTURER_ROLE = keccak256(\"MANUFACTURER_ROLE\");\r\n    bytes32 public constant DISTRIBUTOR_ROLE = keccak256(\"DISTRIBUTOR_ROLE\");\r\n    bytes32 public constant PHARMACY_ROLE = keccak256(\"PHARMACY_ROLE\");\r\n    bytes32 public constant REGULATOR_ROLE = keccak256(\"REGULATOR_ROLE\");\r\n\r\n    struct Drug {\r\n        string id;\r\n        string productId;\r\n        string batchId;\r\n        address manufacturer;\r\n        address currentOwner;\r\n        string status;\r\n        uint256 lastUpdateTimestamp;\r\n        string[] history;\r\n    }\r\n\r\n    mapping(string => Drug) public drugs;\r\n\r\n    event DrugManufactured(string id, string productId, string batchId, address manufacturer);\r\n    event DrugTransferred(string id, address from, address to, string newStatus);\r\n    event ColdChainViolation(string id, uint256 timestamp, string details);\r\n\r\nconstructor() Ownable(msg.sender) {\r\n    _grantRole(DEFAULT_ADMIN_ROLE, msg.sender);\r\n    _grantRole(MANUFACTURER_ROLE, msg.sender);\r\n    _grantRole(REGULATOR_ROLE, msg.sender);\r\n}\r\n\r\n\r\n    function grantRole(bytes32 role, address account) public virtual override onlyRole(DEFAULT_ADMIN_ROLE) {\r\n        super.grantRole(role, account);\r\n    }\r\n\r\n    function revokeRole(bytes32 role, address account) public virtual override onlyRole(DEFAULT_ADMIN_ROLE) {\r\n        super.revokeRole(role, account);\r\n    }\r\n\r\n    function renounceRole(bytes32 role, address account) public virtual override {\r\n        super.renounceRole(role, account);\r\n    }\r\n\r\n    function hasRole(bytes32 role, address account) public view virtual override returns (bool) {\r\n        return super.hasRole(role, account);\r\n    }\r\n\r\n    modifier onlyCurrentDrugOwner(string memory _drugId) {\r\n        require(bytes(drugs[_drugId].id).length > 0, \"Drug not found for owner check.\");\r\n        require(msg.sender == drugs[_drugId].currentOwner, \"Only the current owner of the drug can perform this action.\");\r\n        _;\r\n    }\r\n\r\n    function manufactureDrug(string memory _id, string memory _productId, string memory _batchId)\r\n        public\r\n        onlyRole(MANUFACTURER_ROLE)\r\n    {\r\n        require(bytes(drugs[_id].id).length == 0, \"Drug with this ID already exists.\");\r\n\r\n        drugs[_id] = Drug({\r\n            id: _id,\r\n            productId: _productId,\r\n            batchId: _batchId,\r\n            manufacturer: msg.sender,\r\n            currentOwner: msg.sender,\r\n            status: \"MANUFACTURED\",\r\n            lastUpdateTimestamp: block.timestamp,\r\n            history: new string[](0)\r\n        });\r\n\r\n        drugs[_id].history.push(string(abi.encodePacked(\"MANUFACTURED by \", addressToString(msg.sender), \" at \", uint256ToString(block.timestamp))));\r\n        emit DrugManufactured(_id, _productId, _batchId, msg.sender);\r\n    }\r\n\r\n    function transferDrug(string memory _id, address _newOwner, string memory _newStatus)\r\n        public\r\n        onlyCurrentDrugOwner(_id)\r\n    {\r\n        require(bytes(drugs[_id].id).length > 0, \"Drug not found.\");\r\n        require(_newOwner != address(0), \"New owner cannot be zero address.\");\r\n\r\n        address oldOwner = drugs[_id].currentOwner;\r\n        drugs[_id].currentOwner = _newOwner;\r\n        drugs[_id].status = _newStatus;\r\n        drugs[_id].lastUpdateTimestamp = block.timestamp;\r\n\r\n        drugs[_id].history.push(string(abi.encodePacked(\"TRANSFERRED from \", addressToString(oldOwner), \" to \", addressToString(_newOwner), \" as \", _newStatus, \" at \", uint256ToString(block.timestamp))));\r\n        emit DrugTransferred(_id, oldOwner, _newOwner, _newStatus);\r\n    }\r\n\r\n    function logColdChainViolation(string memory _id, string memory _details)\r\n        public\r\n        onlyRole(REGULATOR_ROLE)\r\n    {\r\n        require(bytes(drugs[_id].id).length > 0, \"Drug not found.\");\r\n        drugs[_id].history.push(string(abi.encodePacked(\"COLD_CHAIN_VIOLATION: \", _details, \" by \", addressToString(msg.sender), \" at \", uint256ToString(block.timestamp))));\r\n        emit ColdChainViolation(_id, block.timestamp, _details);\r\n    }\r\n\r\n    function verifyDrug(string memory _id)\r\n        public\r\n        view\r\n        returns (string memory productId, string memory batchId, address manufacturer, address currentOwner, string memory status, string[] memory history)\r\n    {\r\n        require(bytes(drugs[_id].id).length > 0, \"Drug not found.\");\r\n        return (\r\n            drugs[_id].productId,\r\n            drugs[_id].batchId,\r\n            drugs[_id].manufacturer,\r\n            drugs[_id].currentOwner,\r\n            drugs[_id].status,\r\n            drugs[_id].history\r\n        );\r\n    }\r\n\r\n    function addressToString(address _address) internal pure returns (string memory) {\r\n        bytes32 value = bytes32(uint256(uint160(_address)));\r\n        bytes memory alphabet = \"0123456789abcdef\";\r\n        bytes memory str = new bytes(42);\r\n        str[0] = '0';\r\n        str[1] = 'x';\r\n        for (uint i = 0; i < 20; i++) {\r\n            str[2+i*2] = alphabet[uint8(value[i] >> 4)];\r\n            str[3+i*2] = alphabet[uint8(value[i] & 0x0f)];\r\n        }\r\n        return string(str);\r\n    }\r\n\r\n    function uint256ToString(uint256 _value) internal pure returns (string memory) {\r\n        if (_value == 0) {\r\n            return \"0\";\r\n        }\r\n        uint256 temp = _value;\r\n        uint256 digits;\r\n        while (temp != 0) {\r\n            digits++;\r\n            temp /= 10;\r\n        }\r\n        bytes memory buffer = new bytes(digits);\r\n        while (_value != 0) {\r\n            digits -= 1;\r\n            buffer[digits] = bytes1(uint8(48 + uint256(_value % 10)));\r\n            _value /= 10;\r\n        }\r\n        return string(buffer);\r\n    }\r\n}\r\n",
  "sourcePath": "D:\\Counterfeit-Medicines-and-Drugs-using-Blockchain\\blockchain\\contracts\\DrugTracking.sol",
  "compiler": {
    "name": "solc",
    "version": "0.8.26+commit.8a97fa7a.Emscripten.clang"
  },
  "schemaVersion": "3.4.16",
  "updatedAt": "2025-06-30T11:22:24.878Z",
  "networkType": "ethereum",
  "devdoc": {
    "errors": {
      "AccessControlBadConfirmation()": [
        {
          "details": "The caller of a function is not the expected one. NOTE: Don't confuse with {AccessControlUnauthorizedAccount}."
        }
      ],
      "AccessControlUnauthorizedAccount(address,bytes32)": [
        {
          "details": "The `account` is missing a role."
        }
      ],
      "OwnableInvalidOwner(address)": [
        {
          "details": "The owner is not a valid owner account. (eg. `address(0)`)"
        }
      ],
      "OwnableUnauthorizedAccount(address)": [
        {
          "details": "The caller account is not authorized to perform an operation."
        }
      ]
    },
    "events": {
      "RoleAdminChanged(bytes32,bytes32,bytes32)": {
        "details": "Emitted when `newAdminRole` is set as ``role``'s admin role, replacing `previousAdminRole` `DEFAULT_ADMIN_ROLE` is the starting admin for all roles, despite {RoleAdminChanged} not being emitted to signal this."
      },
      "RoleGranted(bytes32,address,address)": {
        "details": "Emitted when `account` is granted `role`. `sender` is the account that originated the contract call. This account bears the admin role (for the granted role). Expected in cases where the role was granted using the internal {AccessControl-_grantRole}."
      },
      "RoleRevoked(bytes32,address,address)": {
        "details": "Emitted when `account` is revoked `role`. `sender` is the account that originated the contract call:   - if using `revokeRole`, it is the admin role bearer   - if using `renounceRole`, it is the role bearer (i.e. `account`)"
      }
    },
    "kind": "dev",
    "methods": {
      "getRoleAdmin(bytes32)": {
        "details": "Returns the admin role that controls `role`. See {grantRole} and {revokeRole}. To change a role's admin, use {_setRoleAdmin}."
      },
      "grantRole(bytes32,address)": {
        "details": "Grants `role` to `account`. If `account` had not been already granted `role`, emits a {RoleGranted} event. Requirements: - the caller must have ``role``'s admin role. May emit a {RoleGranted} event."
      },
      "hasRole(bytes32,address)": {
        "details": "Returns `true` if `account` has been granted `role`."
      },
      "owner()": {
        "details": "Returns the address of the current owner."
      },
      "renounceOwnership()": {
        "details": "Leaves the contract without owner. It will not be possible to call `onlyOwner` functions. Can only be called by the current owner. NOTE: Renouncing ownership will leave the contract without an owner, thereby disabling any functionality that is only available to the owner."
      },
      "revokeRole(bytes32,address)": {
        "details": "Revokes `role` from `account`. If `account` had been granted `role`, emits a {RoleRevoked} event. Requirements: - the caller must have ``role``'s admin role. May emit a {RoleRevoked} event."
      },
      "supportsInterface(bytes4)": {
        "details": "See {IERC165-supportsInterface}."
      },
      "transferOwnership(address)": {
        "details": "Transfers ownership of the contract to a new account (`newOwner`). Can only be called by the current owner."
      }
    },
    "version": 1
  },
  "userdoc": {
    "kind": "user",
    "methods": {},
    "version": 1
  }
}