{
  "contractName": "MedicineTracker",
  "abi": [
    {
      "anonymous": false,
      "inputs": [
        {
          "indexed": false,
          "internalType": "string",
          "name": "id",
          "type": "string"
        },
        {
          "indexed": false,
          "internalType": "string",
          "name": "name",
          "type": "string"
        },
        {
          "indexed": false,
          "internalType": "string",
          "name": "manufacturer",
          "type": "string"
        },
        {
          "indexed": false,
          "internalType": "address",
          "name": "owner",
          "type": "address"
        }
      ],
      "name": "MedicineAdded",
      "type": "event"
    },
    {
      "anonymous": false,
      "inputs": [
        {
          "indexed": false,
          "internalType": "string",
          "name": "id",
          "type": "string"
        },
        {
          "indexed": false,
          "internalType": "string",
          "name": "newStatus",
          "type": "string"
        },
        {
          "indexed": false,
          "internalType": "string",
          "name": "newLocation",
          "type": "string"
        },
        {
          "indexed": false,
          "internalType": "address",
          "name": "newOwner",
          "type": "address"
        }
      ],
      "name": "MedicineStatusUpdated",
      "type": "event"
    },
    {
      "inputs": [
        {
          "internalType": "uint256",
          "name": "",
          "type": "uint256"
        }
      ],
      "name": "medicineIds",
      "outputs": [
        {
          "internalType": "string",
          "name": "",
          "type": "string"
        }
      ],
      "stateMutability": "view",
      "type": "function",
      "constant": true
    },
    {
      "inputs": [
        {
          "internalType": "string",
          "name": "",
          "type": "string"
        }
      ],
      "name": "medicines",
      "outputs": [
        {
          "internalType": "string",
          "name": "id",
          "type": "string"
        },
        {
          "internalType": "string",
          "name": "name",
          "type": "string"
        },
        {
          "internalType": "string",
          "name": "manufacturer",
          "type": "string"
        },
        {
          "internalType": "uint256",
          "name": "manufactureDate",
          "type": "uint256"
        },
        {
          "internalType": "string",
          "name": "currentLocation",
          "type": "string"
        },
        {
          "internalType": "string",
          "name": "status",
          "type": "string"
        },
        {
          "internalType": "address",
          "name": "owner",
          "type": "address"
        },
        {
          "internalType": "uint256",
          "name": "timestamp",
          "type": "uint256"
        }
      ],
      "stateMutability": "view",
      "type": "function",
      "constant": true
    },
    {
      "inputs": [],
      "name": "owner",
      "outputs": [
        {
          "internalType": "address",
          "name": "",
          "type": "address"
        }
      ],
      "stateMutability": "view",
      "type": "function",
      "constant": true
    },
    {
      "inputs": [
        {
          "internalType": "string",
          "name": "_id",
          "type": "string"
        },
        {
          "internalType": "string",
          "name": "_name",
          "type": "string"
        },
        {
          "internalType": "string",
          "name": "_manufacturer",
          "type": "string"
        },
        {
          "internalType": "string",
          "name": "_currentLocation",
          "type": "string"
        }
      ],
      "name": "addMedicine",
      "outputs": [],
      "stateMutability": "nonpayable",
      "type": "function"
    },
    {
      "inputs": [
        {
          "internalType": "string",
          "name": "_id",
          "type": "string"
        },
        {
          "internalType": "string",
          "name": "_newStatus",
          "type": "string"
        },
        {
          "internalType": "string",
          "name": "_newLocation",
          "type": "string"
        }
      ],
      "name": "updateMedicineStatus",
      "outputs": [],
      "stateMutability": "nonpayable",
      "type": "function"
    },
    {
      "inputs": [
        {
          "internalType": "string",
          "name": "_id",
          "type": "string"
        }
      ],
      "name": "getMedicine",
      "outputs": [
        {
          "internalType": "string",
          "name": "id",
          "type": "string"
        },
        {
          "internalType": "string",
          "name": "name",
          "type": "string"
        },
        {
          "internalType": "string",
          "name": "manufacturer",
          "type": "string"
        },
        {
          "internalType": "uint256",
          "name": "manufactureDate",
          "type": "uint256"
        },
        {
          "internalType": "string",
          "name": "currentLocation",
          "type": "string"
        },
        {
          "internalType": "string",
          "name": "status",
          "type": "string"
        },
        {
          "internalType": "address",
          "name": "owner",
          "type": "address"
        },
        {
          "internalType": "uint256",
          "name": "timestamp",
          "type": "uint256"
        }
      ],
      "stateMutability": "view",
      "type": "function",
      "constant": true
    },
    {
      "inputs": [],
      "name": "getAllMedicineIds",
      "outputs": [
        {
          "internalType": "string[]",
          "name": "",
          "type": "string[]"
        }
      ],
      "stateMutability": "view",
      "type": "function",
      "constant": true
    }
  ],
  "bytecode": "0x608060405234801561001057600080fd5b506116e6806100206000396000f3fe608060405234801561001057600080fd5b506004361061009a576000357c0100000000000000000000000000000000000000000000000000000000900480638da5cb5b116100785780638da5cb5b1461011057806390c634771461012e578063a5d7cedd14610165578063f42f0e26146101955761009a565b8063020d07a41461009f5780631262a67e146100bb57806321b9da99146100d9575b600080fd5b6100b960048036038101906100b4919061101b565b6101b1565b005b6100c3610431565b6040516100d09190611329565b60405180910390f35b6100f360048036038101906100ee9190610f43565b61050a565b6040516101079897969594939291906113c7565b60405180910390f35b610118610830565b604051610125919061130e565b60405180910390f35b61014860048036038101906101439190610f43565b610838565b60405161015c9897969594939291906113c7565b60405180910390f35b61017f600480360381019061017a91906110de565b610bd4565b60405161018c919061134b565b60405180910390f35b6101af60048036038101906101aa9190610f84565b610c80565b005b600080856040516101c291906112f7565b908152602001604051809103902060000180546101de906115f8565b905014610220576040517f08c379a000000000000000000000000000000000000000000000000000000000815260040161021790611468565b60405180910390fd5b6040518061010001604052808581526020018481526020018381526020014281526020018281526020016040518060400160405280600c81526020017f4d616e756661637475726564000000000000000000000000000000000000000081525081526020013373ffffffffffffffffffffffffffffffffffffffff168152602001428152506000856040516102b591906112f7565b908152602001604051809103902060008201518160000190805190602001906102df929190610e23565b5060208201518160010190805190602001906102fc929190610e23565b506040820151816002019080519060200190610319929190610e23565b50606082015181600301556080820151816004019080519060200190610340929190610e23565b5060a082015181600501908051906020019061035d929190610e23565b5060c08201518160060160006101000a81548173ffffffffffffffffffffffffffffffffffffffff021916908373ffffffffffffffffffffffffffffffffffffffff16021790555060e082015181600701559050506001849080600181540180825580915050600190039060005260206000200160009091909190915090805190602001906103ed929190610e23565b507f0dd5239ba3bd2f7916264d17e6efe3f016d88b2e3356aabb1db1a942a516d56684848433604051610423949392919061136d565b60405180910390a150505050565b60606001805480602002602001604051908101604052809291908181526020016000905b82821015610501578382906000526020600020018054610474906115f8565b80601f01602080910402602001604051908101604052809291908181526020018280546104a0906115f8565b80156104ed5780601f106104c2576101008083540402835291602001916104ed565b820191906000526020600020905b8154815290600101906020018083116104d057829003601f168201915b505050505081526020019060010190610455565b50505050905090565b600081805160208101820180518482526020830160208501208183528095505050505050600091509050806000018054610543906115f8565b80601f016020809104026020016040519081016040528092919081815260200182805461056f906115f8565b80156105bc5780601f10610591576101008083540402835291602001916105bc565b820191906000526020600020905b81548152906001019060200180831161059f57829003601f168201915b5050505050908060010180546105d1906115f8565b80601f01602080910402602001604051908101604052809291908181526020018280546105fd906115f8565b801561064a5780601f1061061f5761010080835404028352916020019161064a565b820191906000526020600020905b81548152906001019060200180831161062d57829003601f168201915b50505050509080600201805461065f906115f8565b80601f016020809104026020016040519081016040528092919081815260200182805461068b906115f8565b80156106d85780601f106106ad576101008083540402835291602001916106d8565b820191906000526020600020905b8154815290600101906020018083116106bb57829003601f168201915b5050505050908060030154908060040180546106f3906115f8565b80601f016020809104026020016040519081016040528092919081815260200182805461071f906115f8565b801561076c5780601f106107415761010080835404028352916020019161076c565b820191906000526020600020905b81548152906001019060200180831161074f57829003601f168201915b505050505090806005018054610781906115f8565b80601f01602080910402602001604051908101604052809291908181526020018280546107ad906115f8565b80156107fa5780601f106107cf576101008083540402835291602001916107fa565b820191906000526020600020905b8154815290600101906020018083116107dd57829003601f168201915b5050505050908060060160009054906101000a900473ffffffffffffffffffffffffffffffffffffffff16908060070154905088565b600030905090565b606080606060006060806000806000808a60405161085691906112f7565b908152602001604051809103902090506000816000018054610877906115f8565b9050116108b9576040517f08c379a00000000000000000000000000000000000000000000000000000000081526004016108b090611488565b60405180910390fd5b806000018160010182600201836003015484600401856005018660060160009054906101000a900473ffffffffffffffffffffffffffffffffffffffff168760070154878054610908906115f8565b80601f0160208091040260200160405190810160405280929190818152602001828054610934906115f8565b80156109815780601f1061095657610100808354040283529160200191610981565b820191906000526020600020905b81548152906001019060200180831161096457829003601f168201915b50505050509750868054610994906115f8565b80601f01602080910402602001604051908101604052809291908181526020018280546109c0906115f8565b8015610a0d5780601f106109e257610100808354040283529160200191610a0d565b820191906000526020600020905b8154815290600101906020018083116109f057829003601f168201915b50505050509650858054610a20906115f8565b80601f0160208091040260200160405190810160405280929190818152602001828054610a4c906115f8565b8015610a995780601f10610a6e57610100808354040283529160200191610a99565b820191906000526020600020905b815481529060010190602001808311610a7c57829003601f168201915b50505050509550838054610aac906115f8565b80601f0160208091040260200160405190810160405280929190818152602001828054610ad8906115f8565b8015610b255780601f10610afa57610100808354040283529160200191610b25565b820191906000526020600020905b815481529060010190602001808311610b0857829003601f168201915b50505050509350828054610b38906115f8565b80601f0160208091040260200160405190810160405280929190818152602001828054610b64906115f8565b8015610bb15780601f10610b8657610100808354040283529160200191610bb1565b820191906000526020600020905b815481529060010190602001808311610b9457829003601f168201915b505050505092509850985098509850985098509850985050919395975091939597565b60018181548110610be457600080fd5b906000526020600020016000915090508054610bff906115f8565b80601f0160208091040260200160405190810160405280929190818152602001828054610c2b906115f8565b8015610c785780601f10610c4d57610100808354040283529160200191610c78565b820191906000526020600020905b815481529060010190602001808311610c5b57829003601f168201915b505050505081565b60008084604051610c9191906112f7565b90815260200160405180910390206000018054610cad906115f8565b905011610cef576040517f08c379a0000000000000000000000000000000000000000000000000000000008152600401610ce690611488565b60405180910390fd5b81600084604051610d0091906112f7565b90815260200160405180910390206005019080519060200190610d24929190610e23565b5080600084604051610d3691906112f7565b90815260200160405180910390206004019080519060200190610d5a929190610e23565b5033600084604051610d6c91906112f7565b908152602001604051809103902060060160006101000a81548173ffffffffffffffffffffffffffffffffffffffff021916908373ffffffffffffffffffffffffffffffffffffffff16021790555042600084604051610dcc91906112f7565b9081526020016040518091039020600701819055507f849f9ad413549766dece43af6b9a480caf86db3e82bac38d17aff136b1f6db8b83838333604051610e16949392919061136d565b60405180910390a1505050565b828054610e2f906115f8565b90600052602060002090601f016020900481019282610e515760008555610e98565b82601f10610e6a57805160ff1916838001178555610e98565b82800160010185558215610e98579182015b82811115610e97578251825591602001919060010190610e7c565b5b509050610ea59190610ea9565b5090565b5b80821115610ec2576000816000905550600101610eaa565b5090565b6000610ed9610ed4846114d9565b6114a8565b905082815260208101848484011115610ef157600080fd5b610efc8482856115b6565b509392505050565b600082601f830112610f1557600080fd5b8135610f25848260208601610ec6565b91505092915050565b600081359050610f3d81611699565b92915050565b600060208284031215610f5557600080fd5b600082013567ffffffffffffffff811115610f6f57600080fd5b610f7b84828501610f04565b91505092915050565b600080600060608486031215610f9957600080fd5b600084013567ffffffffffffffff811115610fb357600080fd5b610fbf86828701610f04565b935050602084013567ffffffffffffffff811115610fdc57600080fd5b610fe886828701610f04565b925050604084013567ffffffffffffffff81111561100557600080fd5b61101186828701610f04565b9150509250925092565b6000806000806080858703121561103157600080fd5b600085013567ffffffffffffffff81111561104b57600080fd5b61105787828801610f04565b945050602085013567ffffffffffffffff81111561107457600080fd5b61108087828801610f04565b935050604085013567ffffffffffffffff81111561109d57600080fd5b6110a987828801610f04565b925050606085013567ffffffffffffffff8111156110c657600080fd5b6110d287828801610f04565b91505092959194509250565b6000602082840312156110f057600080fd5b60006110fe84828501610f2e565b91505092915050565b6000611113838361119f565b905092915050565b6111248161157a565b82525050565b600061113582611519565b61113f818561153c565b93508360208202850161115185611509565b8060005b8581101561118d578484038952815161116e8582611107565b94506111798361152f565b925060208a01995050600181019050611155565b50829750879550505050505092915050565b60006111aa82611524565b6111b4818561154d565b93506111c48185602086016115c5565b6111cd81611688565b840191505092915050565b60006111e382611524565b6111ed818561155e565b93506111fd8185602086016115c5565b61120681611688565b840191505092915050565b600061121c82611524565b611226818561156f565b93506112368185602086016115c5565b80840191505092915050565b600061124f60258361155e565b91507f4d65646963696e652077697468207468697320494420616c726561647920657860008301527f697374732e0000000000000000000000000000000000000000000000000000006020830152604082019050919050565b60006112b560138361155e565b91507f4d65646963696e65206e6f7420666f756e642e000000000000000000000000006000830152602082019050919050565b6112f1816115ac565b82525050565b60006113038284611211565b915081905092915050565b6000602082019050611323600083018461111b565b92915050565b60006020820190508181036000830152611343818461112a565b905092915050565b6000602082019050818103600083015261136581846111d8565b905092915050565b6000608082019050818103600083015261138781876111d8565b9050818103602083015261139b81866111d8565b905081810360408301526113af81856111d8565b90506113be606083018461111b565b95945050505050565b60006101008201905081810360008301526113e2818b6111d8565b905081810360208301526113f6818a6111d8565b9050818103604083015261140a81896111d8565b905061141960608301886112e8565b818103608083015261142b81876111d8565b905081810360a083015261143f81866111d8565b905061144e60c083018561111b565b61145b60e08301846112e8565b9998505050505050505050565b6000602082019050818103600083015261148181611242565b9050919050565b600060208201905081810360008301526114a1816112a8565b9050919050565b6000604051905081810181811067ffffffffffffffff821117156114cf576114ce611659565b5b8060405250919050565b600067ffffffffffffffff8211156114f4576114f3611659565b5b601f19601f8301169050602081019050919050565b6000819050602082019050919050565b600081519050919050565b600081519050919050565b6000602082019050919050565b600082825260208201905092915050565b600082825260208201905092915050565b600082825260208201905092915050565b600081905092915050565b60006115858261158c565b9050919050565b600073ffffffffffffffffffffffffffffffffffffffff82169050919050565b6000819050919050565b82818337600083830152505050565b60005b838110156115e35780820151818401526020810190506115c8565b838111156115f2576000848401525b50505050565b6000600282049050600182168061161057607f821691505b602082108114156116245761162361162a565b5b50919050565b7f4e487b7100000000000000000000000000000000000000000000000000000000600052602260045260246000fd5b7f4e487b7100000000000000000000000000000000000000000000000000000000600052604160045260246000fd5b6000601f19601f8301169050919050565b6116a2816115ac565b81146116ad57600080fd5b5056fea264697066735822122005d339e1480122ab0501dccab36c24cd0421fee73f95a7a7af2394051bab763a64736f6c63430008000033",
  "immutableReferences": {},
  "source": "// SPDX-License-Identifier: MIT\npragma solidity ^0.8.0;\n\ncontract MedicineTracker {\n    struct Medicine {\n        string id; // Unique ID for the medicine (e.g., batch number + serial)\n        string name;\n        string manufacturer;\n        uint256 manufactureDate;\n        string currentLocation;\n        string status; // e.g., \"Manufactured\", \"Distributed\", \"Sold\", \"Recalled\", \"Counterfeit\"\n        address owner; // Current owner/holder of the medicine (e.g., manufacturer, distributor, pharmacy)\n        uint256 timestamp; // Last updated timestamp\n    }\n\n    mapping(string => Medicine) public medicines;\n    string[] public medicineIds; // To keep track of all medicine IDs\n\n    event MedicineAdded(string id, string name, string manufacturer, address owner);\n    event MedicineStatusUpdated(string id, string newStatus, string newLocation, address newOwner);\n\n    // Only allows the owner of the contract to perform certain actions\n    modifier onlyOwner() {\n        require(msg.sender == owner(), \"Only contract owner can call this function.\");\n        _;\n    }\n\n    // Function to get the contract owner (for demonstration, in a real app, you might use Ownable from OpenZeppelin)\n    function owner() public view returns (address) {\n        return address(this);\n    }\n\n    // Add a new medicine to the system\n    function addMedicine(\n        string memory _id,\n        string memory _name,\n        string memory _manufacturer,\n        string memory _currentLocation\n    ) public {\n        require(bytes(medicines[_id].id).length == 0, \"Medicine with this ID already exists.\");\n\n        medicines[_id] = Medicine({\n            id: _id,\n            name: _name,\n            manufacturer: _manufacturer,\n            manufactureDate: block.timestamp,\n            currentLocation: _currentLocation,\n            status: \"Manufactured\",\n            owner: msg.sender,\n            timestamp: block.timestamp\n        });\n        medicineIds.push(_id);\n        emit MedicineAdded(_id, _name, _manufacturer, msg.sender);\n    }\n\n    // Update the status and location of a medicine\n    function updateMedicineStatus(\n        string memory _id,\n        string memory _newStatus,\n        string memory _newLocation\n    ) public {\n        require(bytes(medicines[_id].id).length > 0, \"Medicine not found.\");\n        \n        medicines[_id].status = _newStatus;\n        medicines[_id].currentLocation = _newLocation;\n        medicines[_id].owner = msg.sender; // Owner changes to the one updating\n        medicines[_id].timestamp = block.timestamp;\n        emit MedicineStatusUpdated(_id, _newStatus, _newLocation, msg.sender);\n    }\n\n    // Get details of a specific medicine\n    function getMedicine(string memory _id) public view returns (\n        string memory id,\n        string memory name,\n        string memory manufacturer,\n        uint256 manufactureDate,\n        string memory currentLocation,\n        string memory status,\n        address owner,\n        uint256 timestamp\n    ) {\n        Medicine storage medicine = medicines[_id];\n        require(bytes(medicine.id).length > 0, \"Medicine not found.\");\n        return (\n            medicine.id,\n            medicine.name,\n            medicine.manufacturer,\n            medicine.manufactureDate,\n            medicine.currentLocation,\n            medicine.status,\n            medicine.owner,\n            medicine.timestamp\n        );\n    }\n\n    // Get all medicine IDs (for demonstration, not efficient for large datasets)\n    function getAllMedicineIds() public view returns (string[] memory) {\n        return medicineIds;\n    }\n}\n\n",
  "sourcePath": "D:\\Counterfeit-Medicines-and-Drugs-using-Blockchain\\contracts\\MedicineTracker.sol",
  "compiler": {
    "name": "solc",
    "version": "0.8.0+commit.c7dfd78e.Emscripten.clang"
  },
  "schemaVersion": "3.4.16",
  "updatedAt": "2025-06-27T15:28:02.047Z",
  "networkType": "ethereum",
  "devdoc": {
    "kind": "dev",
    "methods": {},
    "version": 1
  },
  "userdoc": {
    "kind": "user",
    "methods": {},
    "version": 1
  }
}